:100000004EC600005EC600005CC600005AC6000076
:1000100058C600000C94FC3054C600000C94180F15
:1000200050C600004EC600000C94A5260C94EB3080
:100030000C94F0300C94812644C6000042C60000A7
:100040000C94CA303EC600003CC600003AC6000010
:1000500038C600000C94190F34C6000032C60000E8
:1000600030C600002EC60000E62FF72F903009F4AE
:100070009395E5B8C4B8B6EFB0937A00A5E0A09325
:100080007B00A8E0A093810010928000AFEFA093C6
:100090008500A0938400A6E0A093360010928B0008
:1000A00010928A00B3E0AFE3A91B51E0392F33303F
:1000B0002AF0A05CBC4F53953350F9CFB093890020
:1000C000A0938800A0917A00A4FFFCCFB6EBB09378
:1000D0007A00A2E0A0936F00A9E0A093810062E003
:1000E000A0E0A0937B00A1E0A09353008895E5B821
:1000F000C4B884FF1AC0A8E10000AA95F1F7EF93F5
:10010000FF93E7B1F8B1A4E0C2FCA2E0C0FCA1E01B
:10011000BF2FBA2BAE2BB8B904B9A7B9E7B9F8B954
:10012000FF91EF910BC00C947300ACE10000000054
:10013000AA95F1F725B9E5B8000004B9A0918400AB
:10014000A0918500B0918900A395AB1760F7A091AD
:100150007A00A4FFF3CFB6EBB0937A006A9571F7FB
:100160006091780070917900308186FD630F619312
:10017000308186FD731F80FF7193652F4A9579F753
:1001800010926F0010928100B6E0B0937A0008954B
:10019000C801BF01B60118000720080808F80000D0
:1001A000002060A03FA06020020202FF02020210B5
:1001B00010101F0000000708FFDBBDB5B5CBFF071F
:1001C00008FFBB9DADADB3FF0708FFFFF7FB81FF45
:1001D000FF10100508F878385888091003081C3EED
:1001E0007F0D080710FF818181F1E1C1FF40404090
:1001F0004743410D080110FFFF11080310F1E1C151
:100200004743410E0008202121122060E0E0E0FE7B
:10021000FE0402010001037F7F21C2C4C4C04094D8
:10022000840007030102040E080210FEFE7F7F0017
:10023000000000110005202060E0E0E00201000164
:1002400003C2C4C4C0400703010204010410010238
:10025000044E6F742063616C69627261746564211D
:1002600020466F72FF63616C6962726174696F6EC0
:1002700020636C616D70207468652033FF70696E57
:100280007320746F67657468657220616E64207393
:1002900074617274207769746820746865FF6B6597
:1002A000792E2041636B6E6F776C6564676520748F
:1002B00068652073656C662D746573742077697446
:1002C0006820746865206B65792077697468696E49
:1002D000FF32732E20446973636F6E6E6563742002
:1002E00070696E7320616674657220746865FF6D55
:1002F000657373616765202269736F6C617465FF54
:1003000050726F626521222069732073686F776E67
:100310002E20536F66747761726520616E6420646D
:100320006F63756D656E746174696F6E206973209B
:100330006174206769746875622E636F6D2FFE6D3E
:10034000696B726F636F6E74726F6C6C6572FE2D89
:100350006E65742F7472616E736973746F72FE745C
:1003600065737465722000B903870358032E030771
:1003700003E402C302A40288020000140029003E24
:10038000005300690080009700AE00C600DF00F84F
:100390000012012D01490165018201A001BE01DEAB
:1003A00001FF012102440268028E02B502DE020949
:1003B00003350364039403C803FE0337047304B4D2
:1003C00004F90443059305EA054906B3062907AE77
:1003D000074808FF08DE09FD0A930C480F991B0027
:1003E0000000000000000000000000000000001EEF
:1003F0002121211200807F0000007E4A4A4A3400F9
:100400000000000000FC4020100804020100000071
:10041000010101010101010101010101017F0488C4
:10042000D0E0F0F800000000000000000000000034
:10043000000000000000FC94948400000102FC0015
:1004400000000000000000000000001E2121211219
:10045000E0C0804020100F000000C020202040009D
:100460000000FC00009E9E04030303030200000042
:10047000202023242525232020203F00007B7B21D2
:1004800042840480C0000000000000000000000062
:10049000000000FC94948400040607070708F0009D
:1004A000000000000000000000000000803F21214B
:1004B000120C00000000FF000000F0084848C800CF
:1004C00000FE0000E7818181C1E1F18181810100AD
:1004D0002020202121212020203F0000F340404007
:1004E00041434740407FC000000000000000000082
:1004F0000000000000489494946400000000FF0095
:100500000000000000000000000000000000003FAC
:100510002121120C0000FF000000F0084848D00024
:100520000000000000FEFE040404040404040700AC
:1005300008080809090908087F3E1C08087F7F2071
:10054000202020202020E00000000000000000000B
:100550000000000000000048949494640000FF0034
:1005600000000000000000000000FF003C0A090A33
:100570003C002231292926000082868E9EBEFEFE86
:10058000BEDEEFF6FAFEFEFAF2E2C28200000008DA
:10059000080804027984A4A46800FF000000000099
:1005A000000000000000000000000000000000004B
:1005B0000000FF0000F0282428F0001008FC0000D4
:1005C000000000000000000000003C0A090A3C0096
:1005D000FF0000000000000000000000000000001C
:1005E000000000040C1C3C7CFF7C3C1C0C04000044
:1005F000000000009EA1A9A99A804323130B0703C2
:10060000FF030303030303000000000000000000D9
:100610000000788484844800FF000000000000008F
:100620000000F00804E2110909090909090909098A
:100630001121C2040810E0000000010204040700B8
:1006400000000000804020108844231008040300AC
:1006500000000000000000000000FE0100FC02019C
:10066000000000000000000000000000000000008A
:1006700000007949497900000000000000000000F6
:10068000FC021212EC040300010100F00808080843
:10069000F00407000007040000F00000F00402036B
:1006A000020103000C12120C000000000000000008
:1006B000000000000000000000000000003CFE3CC4
:1006C000000000000B000000160E00160E000000D7
:1006D00000000008FE0808FE0801070101070100EC
:1006E0001028FC88100001020702010E8A4E20101B
:1006F0000C0300000705078854225488C003040433
:100700000201060000160E0000000000000000F8C4
:1007100004020000000102040000000000000204C6
:10072000F80000000402014850E0E05048020100D7
:10073000000102004040F0404000000001000000C5
:100740000000000000000005030000404040404061
:100750004000000000000000000000000000000653
:10076000060000008040201008010000000000F892
:1007700084422214F8010204040201000804FE006D
:100780000000000007000018048242241806050437
:100790000404040C0202225488030404040201C06D
:1007A000B08C82FE800000000007003E2212122260
:1007B000C2010204040201F824121222C40102043C
:1007C00004020102824222120E000700000000888B
:1007D00054222254880102040402013844828244D3
:1007E000F80204040402010000303000000000069A
:1007F000060000000030300000000005030000008B
:1008000040A0100804000000010204202020202045
:100810002001010101010100040810A040000402B0
:100820000100000C02C222120C000006000000F8B9
:1008300004629294F8010204040402F8444242441F
:10084000F8070000000007FE22222222DC07040431
:10085000040403FC020202020C030404040403FE69
:1008600002020202FC070404040403FE22222222E4
:1008700002070404040404FE2222220202070000EC
:10088000000000FC02024242CC030404040207FE02
:1008900020202020FE070000000007000002FE02CA
:1008A0000000000407040000000000FE0002040431
:1008B000040300FE6090080402070000010204FE29
:1008C0000000000000070404040404FE0C30300C97
:1008D000FE070000000007FE18204080FE07000011
:1008E000000107FC02020202FC030404040403FEEC
:1008F000424242423C070000000000FC02020202A9
:10090000FC030404050205FE42C242423C0700000B
:100910000102040C122222428C030404040403008A
:100920000202FE0202000000070000FE00000000BC
:10093000FE030404040403007EC000C07E00000126
:1009400007010000FE80F880FE0000070107000696
:100950009860609806060100000106001E20C02075
:100960001E00000007000002824222120E0704044B
:1009700004040400FE020202000007040404001044
:10098000204080000000000000010200020202FE80
:10099000000004040407000008040204080000002A
:1009A000000000000000000000040404040404002F
:1009B0000204080000000000000000804848484889
:1009C000F0030404040207FE10080808F0070404FA
:1009D000040403F00808080830030404040402E0D7
:1009E00010101020FE030404040407F0888888888F
:1009F0007003040404040410FC1202020400070043
:100A00000000007088888888F0020404040403FE53
:100A100040201010E0070000000007000008FA0066
:100A20000000000007000000000000FA00040808B1
:100A3000080700FE40A010080007000001020400A3
:100A40000002FE000000000003040000F808F008A7
:100A5000F0000700070007F820100808F007000062
:100A6000000007F008080808F0030404040403F871
:100A700090080808F0070001010100F0080808903C
:100A8000F8000101010007F82010080830070000F5
:100A90000000003048488888100204040404030061
:100AA00010FE101000000003040402F80000000013
:100AB000F80304040402070078C000C078000001B5
:100AC00007010000F800C000F80003040304031845
:100AD00060808060180601000001067880808040F8
:100AE000F8020404040403080888482818060504CA
:100AF0000404040040A01C020200000007080800D3
:100B00000000FE00000000000F00000002021CA018
:100B1000400008080700000402010204020000006F
:100B2000000000E01008040810010101010101802B
:100B3000494A4848F0030404040207F088888A8977
:100B400070030404040400F0898A88887003040494
:100B5000040400000008FA01000000000700000083
:100B60000209FA0000000000070000000009FA0076
:100B700000000000070000F008080A09F003040460
:100B8000040403F00808090AF0030404040403F849
:100B900000020100F8030404040207F80102000047
:100BA000F8030404040207E090898A90E00700003B
:100BB000000007FC4444464504070404040404FC04
:100BC0004445464404070404040404000004FE05EC
:100BD0000000000407040000000AF90A00000004F5
:100BE000070400000008F90A00000004070400F8E8
:100BF00004040605F8030404040403F804050604C9
:100C0000F8030404040403FE00020100FE030404CC
:100C1000040403FC00010200FC0304040404034078
:100C2000F0101010F04000010101010100FCF8F08B
:100C3000E040FCFC07030100000707FCFC40E0F07B
:100C4000F8FC0707000001030740FCFC00FCFC4027
:100C500000070700070700F808080808080803024B
:100C60000202020202080808080808F8020202024A
:100C700002020340404040404040000000000000AD
:100C80000040408000C020C00000010202010200BC
:100C9000C020C000804002020102020100001124B5
:100CA0001FBECFEFD8E0DEBFCDBF21E0A0E0B1E0B6
:100CB00001C01D92A23CB207E1F70E94C7130C9439
:100CC00043399EC95D98559A80FD599A80FF59987D
:100CD000519A539A5A9867FD5B9A67FF5B985A9AA4
:100CE0005A9866FD5B9A66FF5B985A9A5A9865FD1A
:100CF0005B9A65FF5B985A9A5A9864FD5B9A64FF09
:100D00005B985A9A5A9863FD5B9A63FF5B985A9A6C
:100D10005A9862FD5B9A62FF5B985A9A5A9861FDF5
:100D20005B9A61FF5B985A9A5A9860FD5B9A60FFE4
:100D30005B985A9A5D9A5A985B98089597FF09C0F4
:100D40008F939F938DE2ABD59F918F9190958195D5
:100D50009F4F64E271E04AE050E00E94E238ECC547
:100D60000895ECDF01C0EADF80E299C58DE297C506
:100D70008DE395C5EF92FF920F931F93182F062FC7
:100D8000F42E82E691E0E3D5EE24E0916201F09149
:100D900063018685E81611F4812F09C08485E81661
:100DA00011F4802F04C08585E81611F48F2D77D5B6
:100DB000E3948E2D833049F71F910F91FF90EF90B0
:100DC0000895EF92FF920F931F93182F062FF42E82
:100DD00080E092D488E691E0BAD5EE248E2DA9D594
:100DE000C7DFE0916201F09163018685E81611F496
:100DF000812F09C08485E81611F4802F04C08585F1
:100E0000E81611F48F2D4BD5AFDFE3948E2D833090
:100E100029F71F910F91FF90EF900895682F80E0C0
:100E200092E0662309F491E0623009F481E00895CC
:100E30000F93082FEAEAF1E0880F880FE80FF11D01
:100E4000608171818281938164367105810591058C
:100E500068F420919E0127FD09C0802FDFDF692FF4
:100E6000F3D16EEF23E04DE1BCD604C04FEF04E0B8
:100E70002DE1B2D579DF0F910895863058F4E2E97B
:100E8000F1E0E80FF11DE80FF11D8081918163E031
:100E9000B3D66ACF08951F93182F8091A30188239A
:100EA00019F062DF80E0FBD491D389E591E04FD562
:100EB000812F82958F70E1DF812F8F70DEDF1F9190
:100EC00008958091840182958F7019D0809184015A
:100ED00083701CD080918401DECF0895E6E8F1E0B4
:100EE000E80FF11D0895CF93F9DF9081C681C917EE
:100EF00010F405D001C013D037DFCF910895EEDF95
:100F00008F93808116D58F9101C008958F9387E2CA
:100F100091E01DD58F91E2DF86810BC50895DEDF5C
:100F20008F93868106D58F9101C008958F9383E2B8
:100F300091E00DD58F91D2DF8081FBC4089503D05D
:100F400002D001D000D000D003D002D001D000D018
:100F500000D003D002D001D000D000D0A89503D09B
:100F600002D001D000D000D003D002D001D000D0F8
:100F700000D003D002D001D000D000D003D002D0E6
:100F800001D000D00000089582E090E0893C28F074
:100F9000885C48EC849FC0011124009709F40895EF
:100FA00040918100477019F0D9DF0197F6CF813069
:100FB000910519F002975EE303C057E180E090E0ED
:100FC0004091B200450F4093B30042E0409370005F
:100FD00047E043BF889546E043BF10927000A89554
:100FE000DCCF8F9384E0D1DF06C08F93CDDF03C0C9
:100FF0008F9381E0CADF8F911F93182F1064109395
:101000007C00E12FE07880911F01E81759F0E09310
:101010001F01AEDF8EE980937A0083E083BF88955D
:1010200082E083BF20E030E0A901E0E01FC08EE94C
:1010300080937A0083E083BF889582E083BF6091CC
:10104000780070917900260F371F411D511DE43043
:1010500061F480912101803041F084E02030380734
:1010600020F417FD02C01068CACFEF5F80911E0107
:10107000E817E8F2609122017091230117FF04C084
:10108000609120017091210180E090E00E94E5379D
:101090002FEF33E040E050E00E942738B901CA0149
:1010A00020911E0130E040E050E00E942738C90145
:1010B0001F9108959B01281B390B50F0C901089519
:1010C000BC0180912201909123016817790718F4DF
:1010D000861B970B089580E090E008958EE393E0DF
:1010E0000E941D392091600130916101280F391F44
:1010F00020935E0130935F0183E0283E380720F0A3
:10110000C901885E934002C080E090E062E370E035
:101110000E940038683008F067E0E7E6F3E0E60F89
:10112000F11DE60FF11D459155912591359162E331
:10113000681B421B530B649FC001659F900D1124D7
:10114000499662E370E00E940038620F731F70934B
:1011500059016093580180E493E00E941539992762
:1011600087FD90956091600170916101860F971FD6
:10117000909321018093200190935D0180935C0105
:1011800008950F9221E08C32920710F48CE291E0E6
:101190008C52914069E170E00E94003899E16B3215
:1011A00010F0982F6BE2981BEBEBF2E0E60FF11DCD
:1011B000E60FF11D9F93CF010E941539482F3196FC
:1011C000CF010E941539582F3196CF010E94153951
:1011D000282F3196CF010E941539382F6F91421B6D
:1011E000530B649FC001659F900D11240C9669E11B
:1011F00070E00E940038620F731FCB010F900895BA
:10120000CF93DF9324E130E0B9010E940038DC0184
:10121000E9E7F3E0E60FF71FE60FF71FC591D59159
:10122000459155914C1B5D0B4A9FC0014B9F900D02
:101230005A9F900D1124B9010E9400386C0F7D1F38
:10124000CB01DF91CF910895AEE1B0E0EAE2F9E0A1
:101250000C948A38662EB82E860F898320912F0130
:10126000283059F5209140013091410140914201CF
:101270005091430157FD15C010914F0109C0CA019B
:10128000B9012AE0312D412D512D0E9427381F5FD1
:10129000173FACF391F4243160E036074105510566
:1012A00018F48FEF9FEF42C1173F39F480E0281701
:1012B0008DE738074105410510F020E03DE72C8B14
:1012C0003D8B26EDA22EEEE4F2E0E60DF11D8591B8
:1012D00080608E87EEE4F2E0EB0DF11D8591806079
:1012E0008F87EBE4F2E0E60DF11D7590EBE4F2E0A0
:1012F000EB0DF11DC59090EC692AB92A81E0E82E2A
:10130000F12C012D112D8E831F82188619861A86C5
:101310001B861C861D86188E198E1B8E1A8E0E94A7
:10132000E92280E088B960927C0022DE3F8537B9EF
:1013300075B874B852E05A95F1F70000000014B87F
:1013400015B8DD243E8537B975B874B860927C0055
:10135000A895A0927A0080917A0086FDFCCF20901B
:10136000780030907900B0927C004C2DE3D0209131
:10137000780030917900288B398B3F8537B9C5B813
:10138000C4B8A895B0927C00A0927A0080917A00AF
:1013900086FDFCCF609178007091790060927C00AE
:1013A000472DC8D0409178005091790014B8CB01F6
:1013B000820D931DE80EF91E011D111DEA82FB82AC
:1013C0000C831D8388899989840F951F2E813F8105
:1013D00068857985280F391F611D711D2E833F8314
:1013E0006887798722E32417150648F075B874B822
:1013F000C9DD14B815B8888D8395888F07C0483E1D
:1014000073E0570718F08A8D83958A8F88899989A8
:101410002817190658F03E8537B9C5B8C4B8B2DDEB
:1014200014B815B8898D8395898F07C0883E73E0FD
:10143000970718F08B8D83958B8FD3945D2D5F3F2D
:1014400049F05F3731F45C2D550FC50E572D550F00
:10145000750E78CF4090170150901801440C551C20
:101460009201E4E0240D351DEA95E1F729015701C9
:1014700068016E807F808884998420912F012830B4
:10148000C1F46C897D89812D912D6550704080401B
:1014900090409B01AC010E94E5379B01AC0160E7E5
:1014A00079E786E190E00E942738621A730A840A7D
:1014B000950AA614B704C804D90428F46A187B084E
:1014C0008C089D0803C0662477244301B20180E0A4
:1014D00090E09301A4010E94E5379501A6010E94C6
:1014E000273886E193E07981870F911D0E94153995
:1014F000682EC90160E170E00E940038260F371F96
:10150000C9016816190618F4861991090FC08C5E76
:101510009F4F8615910540F48C899D89843981E11E
:10152000980710F00E947113812D912D6E96E2E1C3
:101530000C94A638109281001092800010926F00D7
:1015400010928B0010928A0057E056BB5FEF5093C9
:1015500085005093840055E050937B0056EB5093E8
:101560007A0051E05093810058E25A95F1F700005B
:1015700045B944B955E05A95F1F7000014B815B8CB
:101580001092810080917A0084FFFCCF80937A00D2
:101590000895CF93C82F1C1614F0CF910895E4DB63
:1015A000C150F9CF60930901809303018695809320
:1015B0000A0187E0689F602D11246093020108955D
:1015C00010920A0160E080E0EDCF089581E0809301
:1015D0000A0160E082E0E6CF089582E080930A018C
:1015E00060E084E0DFCF089583E080930A0160E04B
:1015F00086E0D8CF089580910901809304018091FD
:101600000A0180930501089580910501609104010C
:10161000880FC8CF0895682F80E054CB08958EEAD4
:10162000FADF85EAF8CF0895CF93DF93C0E080E139
:10163000F2DF80E0F0DF8C2F806BEDDFD4E860E03C
:1016400081E040DBDA95D9F7CF5FC83081F7B8DFAA
:10165000DF91CF91089558985A985B985D98509A69
:10166000529A539A559A89DC5D9A559A5998519A8B
:1016700084E18BDC589A84E188DC8EEACCDF82EE50
:10168000CADF82EAC8DF80EAC6DF80ECC4DF8FE20F
:10169000C2DF84E2C0DF81E8BEDF85E193E00E9423
:1016A00015398F73B8DF80E4B6DF84EAB4DF86EAE9
:1016B000B2DFBADF8FEAAFDF60E080E073CF08957A
:1016C0008091090192E1981B892F63CF0895CF93F0
:1016D000C82FF6DF90910A019F5F80E0943010F0F0
:1016E00093E081E090930A01809308016C2F892F89
:1016F000880F58DFCF910895EADF71C3089560DF46
:10170000DFDF5ECF089562DFDBDF60CF0895582F03
:1017100028E030E090E841E080E0652F642361112B
:10172000892B440F969521503040B9F70895A4E0D5
:10173000B0E0EDE9FBE00C948E386C01498310E0D9
:10174000C801860F911D81389105DCF54E0D552796
:10175000551FCA0141345105A4F559815695569536
:1017600056955C83019733E0959587953A95E1F717
:10177000E22FE2706E2EE11569F0482F451B550BE4
:10178000FA01E09FA001E19F500DF09F500D112440
:10179000C40ED51E8B83883010F047E04B83862F14
:1017A00082958F70806189836F706A832170722E39
:1017B0004B815C81451748F4809103018F70806BE9
:1017C0002ADF2496EEE00C94AA388C81806B23DF0C
:1017D000898121DF8A811FDF5601A00EB11E7501AC
:1017E0004601CE14DF0451F4611419F05601A01A19
:1017F000B10A3C813F5F3C836501DACFC7010197A5
:101800007C01FC01711001C0F401849161107FDF43
:10181000682F81E057DAFFEF8F1A9F0AE2CFEF922D
:101820000F93382F8F7320E6829FC00111248152BD
:101830009C4F28E036FF28E420930101109200011C
:1018400037FD06C030E2309300012D5E2093010188
:1018500020E2E22E08E120E04091000160910101C8
:1018600066DF0F91EF900895EF920F93DC01262F22
:10187000FC01649131964491319604913196E49043
:1018800080910001480F80910101680FCD010496FD
:101890004EDF0F91EF90089560E0E6CF0895EF924C
:1018A0000F93909109019F5F90930901282F30E0D9
:1018B00040910301440F440F440F609102018C30AA
:1018C000B0F45EE0529FC001539F900D112430E1AF
:1018D000E32E07E020E0815E934F29DF8091020133
:1018E000895F80930201A8950F91EF9008952C5184
:1018F00031095CE0529FC001539F900D112420E1FB
:10190000E22E06E020E08158994F11DF609102013C
:101910006A5F6093020140910301440F440F440F3A
:1019200001E020E08FEA96E002DF809102018F5F04
:10193000D8CF8F5CB4CF0895CF93DF93EC0189911A
:10194000811103C0DF91CF910895A9DFF8CFCF9324
:10195000DF93EC01CE010E941539811519F09FDF4C
:101960002196F8CFDF91CF910895EF920F93FC016C
:1019700004913196E4900296DADE0F91EF9008958B
:101980000F9380E891E0E3DF40914E014D3F6CF40E
:1019900060913C0170913D0180913E0190913F0129
:1019A00003E026E419D00F9108958FE378DFFBCF91
:1019B00090912E019F70923071F49EDE84E690E04B
:1019C000C6DFE0916201F091630122E04DE16FEF2B
:1019D0008481958106C108954F925F926F927F92A4
:1019E0009F92AF92BF92CF92DF92EF92FF920F93AE
:1019F0001F93CF93DF93CDB7DEB72E970FB6F89432
:101A0000DEBF0FBECDBF6B017C01942EB22E202F06
:101A10002F70A22E80E389838A838B838C838D83AE
:101A20008E83F7FE43C0A2D966277727CB016C19B6
:101A30007D098E099F0923E0F8EECF2EF3E0DF2E1B
:101A4000E12CF12CA21661F124E0E0E1CE2EE7E2D8
:101A5000DE2EE12CF12CA21619F125E050EAC52E5C
:101A600056E8D52EEE24E394F12CA216C9F026E018
:101A700040E4C42E42E4D42E4FE0E42EF12CA21612
:101A800079F027E0A4E6CA2ED12CE12CF12CA21289
:101A900007C030E8C32E36E9D32E38E9E32EF12C07
:101AA0002AE0422E512C612C712C12C005FF02C07D
:101AB0008BE2F5DEC701B601BECF6B5F7F4F8F4F64
:101AC0009F4FA30192010E942738CA01B901939444
:101AD0006C157D058E059F0580F711E1190D2BEA28
:101AE000129F112D1124169536E03919329F212DA0
:101AF0001124D22ED6942E7F2D0DD32ED21A7E01F4
:101B000027E0E20EF11C2AE0A7010E94C138F7018C
:101B100001900020E9F73197CF018E199F097C01D0
:101B2000C82E84E08D0D8E151F041CF41F5F93E0FA
:101B3000D90E812F90E0845D9F4F0E941539982E19
:101B40000071011529F00A2D0E19CA1408F000E0E1
:101B5000CE2CCD18C00E1C1424F08EE2A0DE0D2D6C
:101B60000E19D11002C088EFC82EA12C10E0E00E93
:101B7000F11E0C2C000CDD08EA2DF0E0AE141F0461
:101B8000F4F0911411F0892D8ADEB11411F08B2D2F
:101B900086DE2E960FB6F894DEBF0FBECDBFDF9166
:101BA000CF911F910F91FF90EF90DF90CF90BF905A
:101BB000AF909F907F906F905F904F900895369672
:101BC000E01BF10B81E090E08C0F9D1FE80FF91FE7
:101BD000808165DEA394AC141D0471F68EE25FDE95
:101BE000CBCF0F93362F022FBC0180E090E0242F43
:101BF000432FF2DE0F9108950F93062FBC0180E072
:101C000090E026E54DEFE8DE0F9108950F93042F45
:101C100028E440E0E1DE8AE742DEA6D80F9108958D
:101C2000E82FF0E0EE0FFF1FE057FE4F85919491F3
:101C300020910001420F20910101620F20E095CE1A
:101C40000895CF93DF93C82FD62FE0916201F091D2
:101C5000630148E16EE18685E3DFE0916201F09186
:101C600063014D2F6C2F8485DBDFE0916201F091E1
:101C7000630140E06EE18585D3DFDF91CF91089568
:101C800089B183FB882780F949998260909111017D
:101C9000943050F09EE090930D0180930E011092CD
:101CA000120191E090931101E0911101AE2FB0E08B
:101CB000A35FBE4F2C912817C1F081110EC09091E7
:101CC0001201A3E0AE0FA3702230B1F4B0E0A35F25
:101CD000BE4F2C919F5F2330C1F0EF5FE370E09324
:101CE0001101F0E0E35FFE4F80838091120187FDD8
:101CF0008195809313010895213079F7B0E0A35FB7
:101D0000BE4F2C91233049F7915090931201E5CFAB
:101D1000A0E0B0E0EEE8FEE00C949438E82ED92E76
:101D20005398519820D910921201E0911101F0E0DE
:101D30003196E370FF27E35FFE4F80EF8083D5E6A7
:101D4000C9E19EDF4F9B35C0CE2DDD2DF12C15E571
:101D500000E0D7FD39C082E3C82E92DF08D9CA94CB
:101D6000E1F7110F4F9B1F5F1F731F3399F501118F
:101D700028C0CE2DDD2D05E0A8951C161D0624F4E7
:101D80002A9711F4CFEFDFEF80911301811509F34A
:101D9000F39480910C01811103C081E080930C01C8
:101DA00085E1F812D6CF8091120181110DC0F12C7E
:101DB000D0CFDDD8CA9509F0C4CFDA9509F4C4CFE5
:101DC000BFCF0F5F083CC0F2802FCDB7DEB7E8E091
:101DD0000C94B0381111D0CF011571F2F5CFCF931B
:101DE0000ADCC82F80910801811501F1813051F47E
:101DF000C33041F461E186E0D5DB8BE250DD61E187
:101E000086E0D0DB80E49FE183DF811104C0809114
:101E100013018111F7CFC33041F480910801813063
:101E200021F460E086E0BEDB4BDCEEDBCF91089571
:101E30001895189540918501A0916201B0916301B8
:101E4000E6E8F1E020E030E0822F2417B0F4519171
:101E50001C969C911C97591719F05581951303C036
:101E60002F5F3F4FF1CF220F331FF901EE56FE4F88
:101E700020813181293E334008F084E10895109299
:101E80002F0110928501109283011092730110921C
:101E90002E01109230011092A301E4EAF1E01082C9
:101EA00011821282ECE3F1E0108A82E0818B1092C1
:101EB0009E0117861686148215821682178281EF7C
:101EC000838B0895ACDB5E983DD880E090E020CF16
:101ED00008951F93CF93DF93162F17B818B8E82FE4
:101EE000F0E0E55BFD4F249125B9962F981BE90F93
:101EF000F11D97FDFA95E4912E2B24B97DD8EC01C4
:101F0000812F7AD8AC01209122013091230136959E
:101F10002795C9010397BE01625E7F4F8617970719
:101F200078F4255E3F4FC217D30750F4BA01625EC2
:101F30007F4F8617970720F481E04217530708F078
:101F400080E014B8DF91CF911F910895CF9361E0A5
:101F500080E0BFDFC82F62E080E0BBDFC80F62E037
:101F600081E0B7DF8C0FCF910895AEE0B0E0EBEBEE
:101F7000FFE00C948A38B82E10922F0120E18217CE
:101F8000B8F4E4DF833081F44FDB81E592E0DFDCFD
:101F90001DDB8FE384DC80ED97E0BADE8B30B0F49C
:101FA00043DB85EF90E0D3DC2E96E2E10C94A6387B
:101FB00000E010E039DB88EB91E0C9DCC7DF83305B
:101FC00009F065C01F5F143009F062C0FFDA0E949B
:101FD000C52681EB90E0BBDC60E088E193E00E94E5
:101FE000223960E089E193E00E94223960E087E1D4
:101FF00093E00E94223960E082E026D96C019A8346
:10200000898361E082E020D97C019C838B8360E03E
:1020100081E01AD98C019E838D8323E040E26EEF2C
:10202000C601DFDD23E040E26EEFC701DADD23E029
:102030004DE16EEFC801D5DD8AE5C816D10424F064
:1020400084E190E09A838983698188E193E00E942A
:1020500022399AE5E916F10424F084E190E09C83AA
:102060008B836B8189E193E00E9422390A35110547
:1020700024F084E190E09E838D836D8187E193E07D
:102080000E94223982E080930801A9DE08C010E096
:1020900088E20E94C5070F5F063909F08BCF1B2D20
:1020A0001F70113009F04FC0EE24E394F12CB2E020
:1020B000DB2E08E0C02E80E2A82EB12C0E2D6AE0A7
:1020C000262E72E2372EE8E28E2EF5E09F2E1BDBE5
:1020D00016DB84E5E4DBC7010E94A9060E94B40672
:1020E000013009F0CEC184EE90E031DC64E08091F3
:1020F00060019091610180DD69DA8FED90E027DC6D
:1021000080915801909159010E94A9068EEB80930D
:102110001E0117B818B814B815B888EE93E0F8DDAA
:10212000043011F08B3020F4B39484E0B812CFCF98
:1021300088EE93E0EDDD9FEFE91AF90AE8E0EE168C
:10214000F10409F0BACF08E701DF811191C26CDA1E
:102150008AEA90E0FCDB23E04DE16FEF809115010E
:10216000909116013EDD32DA83EA90E0F0DB23E065
:102170004DE16FEF809117019091180132DD82E0FF
:10218000809308012CDE10922F014EDA8FE990E047
:10219000DEDB60E082E00E94B72340904401509073
:1021A000450160904601709047015C864B8661E076
:1021B00082E00E94B7238090440190904501A09056
:1021C0004601B09047019E868D8660E081E00E94C6
:1021D000B723C0904401D0904501DE82CD8262E0F9
:1021E00080E00E94B72380914401909145019C8337
:1021F0008B8362E081E00E94B7238091440190913B
:1022000045019A87898761E080E00E94B723E090CA
:102210004401F0904501FA82E982C2010E94B306AE
:10222000C4010E94B306B6010D2C000C880B990B5B
:1022300003E026E444EFD0DB113009F024C2F2E0E1
:10224000EF0EF11CF886EF82CE0101967C015E0153
:102250009FE0A90EB11CF701819191910A97853BEE
:102260009105D0F4EA15FB05B9F757E3C52E53E005
:10227000D52EF7016081F2E0EF0EF11C6E5EC60113
:102280000E9422392FEFC21AD20AEA14FB0489F7FE
:102290009DD985EA91E05BDB82E0809308019FDDB8
:1022A0000E949134113029F080911401823009F09C
:1022B000D3C0BAD980E03DDB8BE491E048DB82E01B
:1022C00038DB84E290E043DB20E4F22E10E03AE0D9
:1022D000832E912CA12CB12C47EFE42ED0DD10924F
:1022E0002F0160E082E00E94B72300914E0120910F
:1022F0003C0130913D0140913E0150913F01D02E73
:1023000087EFD8160CF4C9C18E2D801B083F0CF046
:1023100080E0800F80934E0120933C0130933D017B
:1023200040933E0150933F01873F09F0BEC1DA015F
:10233000C90180569109A109B10980399545A105C6
:10234000B10508F0B2C16091310170913201CB0149
:102350008B569F4F8B32914008F0A7C11F5F1530FD
:1023600009F0A4C18EE393E00E9430395DD98DE17C
:1023700090E0EDDA80913101909132010E949E0649
:102380000E946E0818B881E087B980E284B982E0C3
:102390000E94FC07853D9340D4F714B810922101A8
:1023A0001092200182E00E94FC078C0180915C0168
:1023B00090915D01909321018093200182E00E9421
:1023C000FC077C01EE0CFF1C1092210110922001F1
:1023D00082E00E94FC074C01C0905C01D0905D013E
:1023E000D0922101C0922001F1D886E190E0AFDACD
:1023F00080E493E00E941539B82ED801A80DB91DCC
:10240000AE19BF0996010E94743897010F2C000C79
:10241000440B550B0E94493883E08B0D182F120F87
:10242000612F80E493E00E942239812F012E000C5D
:10243000990B0E949E060E946E0882E0809308011C
:10244000CEDC1092140187E393E00E941539682FC7
:102450008AE393E00E94223989E180931E0180E0A3
:102460000E949F37E1D885EF90E071DAAFD885E31D
:1024700092E06DDA10922F0182E080930801AFDCC8
:1024800093CD0230A9F52091220130912301A8E5D6
:10249000BBE10E94653824EC36E340E050E00E9446
:1024A000493829013A0181E085B994B880E00E9459
:1024B000F1079C01241935093A83298381E184B904
:1024C00080E00E94F1079C01241935093C832B838D
:1024D00084E085B984E184B981E00E94F1079C0120
:1024E000241935093E832D8389EC90E030DA33C01E
:1024F000033049F5D5B824B880E00E94F107209157
:102500002201309123013695279538872F83821B2E
:10251000930B9A83898334B880E00E94F1072F815E
:102520003885821B930B9C838B83C5B884B881E06C
:102530000E94F1072F813885821B930B9E838D8328
:102540008BEB90E0D3CF0430C1F483E492E0FFD969
:10255000FDDC8111C3C03AD889819A810E949E0610
:102560000E94B4068B819C810E949E060E94B40644
:102570008D819E810E949E06CCCD0530B1F415B8A8
:10258000D4B880E00E94F1079A838983C4B881E0BF
:102590000E94F1079C838B83A4B882E00E94F1071C
:1025A0009E838D838BED90E0A1CF063051F5D4B89A
:1025B000D5B880E00E94F1072091220130912301DB
:1025C000821B930B9A838983C4B8C5B881E00E94AB
:1025D000F1072091220130912301821B930B9C83F0
:1025E0008B83A4B8A5B882E00E94F1072091220154
:1025F00030912301821B930B9E838D8387ED90E0A6
:1026000075CF073009F0A7CF209122013091230127
:10261000A8E5BBE10E94653828EB32ED47E450E0C5
:102620000E94273829013A01D5B8E3E0E4B980E0F7
:102630000E94F1079C01241935093A832983C5B802
:10264000FCE0F4B981E00E94F1079C0124193509EE
:102650003C832B83A5B820E324B982E00E94F107D4
:102660009C01241935093E832D8385EB90E03ECFF4
:102670004AD883E492E06BD984E60E94C5070A95A4
:1026800009F062CD64CD80911401823009F4D7CD78
:10269000F886EF8210921401D7CDCA01B901A501C5
:1026A00094010E942738D3942BCE10E00E94E60AB2
:1026B00060913C0170913D0180913E0190913F01FC
:1026C00004E026E440914E0187D90E94600B88E225
:1026D0000E94C507FA9409F001CEBECE82E0B82E62
:1026E0003ACF8091140181110DC087E393E00E94DD
:1026F000153961E0680F8AE393E00E94223981E096
:10270000809314010895EF92FF920F931F93CF933C
:10271000DF93D62FE82FF0E0E25BFD4FE491E8B9BC
:10272000E7B915B8E62FF0E0E55BFD4FE491E4B9B9
:10273000CE2FCC0F08E813E178018D2F0E94F1070E
:102740008C01C4B98E159F05B8F3892BD9F00E946E
:10275000F40A8BE291E0FBD8D80120EA36E841E0A8
:1027600050E00E947A3828E937EB40E050E00E94C0
:102770002738DA01C90122E041E467EF32DA17B8FD
:1027800018B814B8CDB7DEB7E6E00C94B23880E4E0
:102790008AB98BB95F9AD6E8D0937A001092C100BB
:1027A0000E94A407C4B7C87084B7877F84BF0FB6E0
:1027B000F894A895809160008861809360001092E1
:1027C00060000FBED093640088E380937E00109277
:1027D000B00087E08093B10078940E942B0BC11168
:1027E00072C584E0809311014F9908C00E94C4070C
:1027F000CF5FCC33C9F780E69DE604C08FE59DE648
:10280000CF31C8F7909307018093060110921F0102
:102810000E94C52688E19FE00FB6F894A8958093A2
:1028200060000FBE90936000CC3309F461C032E1C8
:10283000932ED0E144E6C42E41E0D42E54E7E52E99
:1028400051E0F52E63E3862E71E2772EE0E26E2EE4
:102850008FEA0E940B0B84EA0E940B0B0E94140B60
:1028600017B80DDB0E94C5260E94E00A3AD5809178
:102870003001811571F00E94E60A80E491E067D88A
:1028800063E08091220190912301B6D988EC0E94E7
:10289000C5070E94E60A0E94E92280912F01893033
:1028A00061F50E94140B85E491E051D80E94E60A7C
:1028B00063E080913601909137019ED90E94B40661
:1028C00063E0809138019091390196D90E94B40655
:1028D00063E080913A0190913B018ED98AEC0E948D
:1028E000C50781E142DBC0910601109107016BC170
:1028F0000E9450308111FCCF9ACF8AE393E00E946E
:102900001539C82F87E393E00E941539C81BC0937F
:10291000140180E02ADB0E94830B82EB92E017D83F
:1029200042E061E080E04DD542E060E081E049D5E1
:1029300041E062E080E045D541E060E082E041D5E1
:1029400040E062E081E03DD540E061E082E039D5E1
:1029500080912F0181110EC00E94E92260E082E087
:102960000E94B72361E082E00E94B72360E081E02B
:102970000E94B7230E94140BD0926301C09262019F
:1029800080912F018630E9F485EC0E940F0C60E104
:1029900088EF57D967E080E00E94D20A86E892E08B
:1029A0000E94A70C67E082E00E94D20A89E591E0CC
:1029B0000E94A70C62E080916801909169011CD986
:1029C00092CF873069F484EC0E940F0C60E188EFAD
:1029D00038D967E080E00E94D20A8AE892E0E0CF2E
:1029E0008830A9F480914C0190914D01890F99276D
:1029F000991F029741F40E942329809114018111AB
:102A000022C460DA25CF80E00E944F286CCF83304B
:102A100009F0EBC080918501813009F04DC080E064
:102A20000E9473076091860180918C016CDE80E7C3
:102A30000E944B0740E06091860180918C010E94CA
:102A4000CC3360933C0170933D0180933E019093A1
:102A50003F0180E00E947C0B60913C0170913D0140
:102A600080913E0190913F0102E026E442EF0E94F6
:102A7000EC0C8091A301811509F435CFD7B917B8B3
:102A800080E00E947C0B3091A301311509F4A7C3AB
:102A90008091A701313009F03DC30E940E07692FD4
:102AA0009091A701913009F031C390918501911166
:102AB0002DC30E94DA28A1CF823071F582E30E94F3
:102AC0004F0C8DE091E00E94A70C9091860130910F
:102AD0008701931308C080E00E948F0781E00E9465
:102AE000860781E0A5CF20918C0180918D0128136C
:102AF00007C080E00E947F0781E00E949607F1CF27
:102B0000321306C081E0809384010E946107B1CF37
:102B100098133AC080E1F7CF8330B1F580928401F9
:102B200080918C0190918701891303C021E020934B
:102B300084014091860130918D01431302C0D093EE
:102B4000840120918801821303C082E08093840174
:102B500080918E01481302C06092840132130EC02E
:102B600090928401981302C07092840183E30E94C2
:102B70004F0C8DE091E00E94A70CC7CF9817A1F3EE
:102B800080918401823290F380E992E00E94A70C48
:102B90008EE792E00E94A70C0E94E60A80918501D0
:102BA000805D0E944F0C8AE20E944F0C87E291E008
:102BB0000E94A70C86E692E00E94A70C86E00E9485
:102BC0000F0CC0E41FE1D7B94F9BFECF8C2F912F84
:102BD0009FD8823328F490911301933008F40EC3E8
:102BE0000E9450308111FCCF33CE843009F055C1A2
:102BF00080918301811509F454C08091730181157E
:102C000009F44FC060917001809172010E94B72356
:102C100020903C0130903D0140903E0150903F019A
:102C2000C0914E0160918201809180010E94B72382
:102C30004091640150916501609166017091670156
:102C40008091740190917501A0917601B091770106
:102C5000443F51406105710508F0F0C0843F914048
:102C6000A105B10508F0F4C080914E018C13F2C0AB
:102C700080913C0190913D01A0913E01B0913F01B6
:102C8000281639064A065B0608F4E7C08CE08093F4
:102C90002E0190918301911521F090917301911172
:102CA000DEC067E080E00E94D20A80EC0E940F0C38
:102CB00080912E018C3009F0D9C085E791E00E9407
:102CC000A70C80918301811519F080E70E944F0CB9
:102CD000B1D8C82F8530A0F4A0916201B0916301F2
:102CE000E82FF0E0EA57FE4F61E01D969C9180814D
:102CF000981301C060E0660F86E991E00E94340CF1
:102D000060E189EF0E94210E87E00E94670B84E852
:102D100091E00E94A70CE0916201F0916301608153
:102D200071818281938103E020E04EEF0E94EC0CE0
:102D300088E00E94670B89E40E944F0CE0916201D9
:102D4000F0916301868197818031974208F4A1C098
:102D500085E60E944F0CE0916201F091630186814B
:102D6000978180519742978386830E94B806E091AD
:102D70006201F091630122E041E46AEF868197816C
:102D80000E94F10D87E00E94670B8DE591E00E94A3
:102D9000A70CE0916201F091630163E08481958169
:102DA0000E94FC0D81E080930801E0916201F091A6
:102DB000630180859185892B91F086E00E947C0BD0
:102DC0008FEE90E00E94A70CE0916201F091630108
:102DD00022E041E46AEF808591850E94F10DE09147
:102DE0006201F091630182859385892B91F086E0E1
:102DF0000E947C0B89EE90E00E94A70CE09162019A
:102E0000F091630122E041E46AEF828593850E949C
:102E1000F10DC53068F480E00E947C0B8C2F0E947D
:102E2000730789E591E00E94A70C8C2F0E943D0753
:102E300043E462E485E40E94E10655CD843F91407D
:102E4000A105B10508F010CF80EF80934E010CCFA3
:102E5000C0EF0ACFC8170CF019CF8DE018CF4F99EB
:102E600020CF91E0892780932E011BCFF092630140
:102E7000E092620181ED91E00E944C0C8DE691E0C0
:102E80000E94A70C80917301811509F421CF8EE671
:102E90001DCF83E60E944F0C68CF853009F0F3CD3B
:102EA00067E080E00E94D20AC0912E01C071C11576
:102EB00009F464C080E50E944F0CF0926301E09237
:102EC0006201C2E00E94B60680912E01182F1F7089
:102ED000143009F057C08FE891E00E94A70C83ECF2
:102EE0000E940F0C8AED91E0C11168C00E941A0F78
:102EF0008530A0F4A0916201B0916301E82FF0E069
:102F0000EA57FE4F61E01D969C918081981301C0A5
:102F100060E0660F86E991E00E94340C60E189EF81
:102F20000E94210E87E00E94670B80912E0185FD93
:102F300061C085E591E00E94A70CE0916201F091EB
:102F4000630162E0828593850E94FC0DE09162013D
:102F5000F0916301668584850E94B72387E00E9413
:102F6000670B0E94C00C86E00E94D80C4FE367E418
:102F70008FE3143009F45FCFC0E0BBC08EE40E9441
:102F80004F0CA0CF85FF1DC084E40E944F0CCF5F83
:102F90001330D9F489E891E00E94A70C81EC0E94DB
:102FA0000F0C87E292E0C13049F083E392E0C23037
:102FB00029F083E092E0C33009F098CF0E944C0CD6
:102FC00095CF85E40E944F0CE3CF84E991E00E9405
:102FD000A70C82EC0E940F0C83EF91E0C13071F3DB
:102FE00089EF91E0C23051F3C33009F07FCF81EE19
:102FF00091E0E4CFE0916201F09163018F70843041
:1030000009F454C0668584850E94B7230E94C00CD1
:1030100060E084E00E94D20A89E40E944F0C84E6BA
:103020000E944F0C0E94B806E0916201F09163018A
:1030300022E041E46AEF868197810E94F10D8FE4DE
:1030400091E00E94A70CE0916201F091630162E0BF
:10305000828593850E94FC0DE0916201F0916301ED
:1030600080859185803C9241F8F480E00E947C0B41
:1030700089E40E944F0C84E60E944F0C0E94B8061F
:1030800022E041E46BEF80E090E00E94F10D8FE4DC
:1030900091E00E94A70CE0916201F091630162E06F
:1030A000808591850E94FC0D80E05ECF84819581B2
:1030B000892B09F4ADCF80E090E00E94A70CE0914D
:1030C0006201F091630122E041E46AEF848195811D
:1030D0000E94F10D9DCF80E00E947C0B8C2F0E94FE
:1030E000730789E591E00E94A70C8C2F0E943D0791
:1030F000CF5F80918501C81770F344E467E483E5EE
:10310000133009F098CE43E467E494CE40E00E9487
:103110009127E9CB9091A801F4E09F9FD001112461
:10312000A655BE4F24E0829FF0011124E655FE4FC4
:103130004D915D916D917C912080318042805380D2
:10314000282F241635064606570608F4292F980F0F
:10315000C3E0C91B3230E9F0C091A90184E0C89FE7
:10316000D0011124A655BE4F94E0299FF0011124EF
:10317000E655FE4F8D919D910D90BC91A02D408103
:10318000518162817381481759076A077B0708F0EC
:10319000C22F0C2F069512E0B12EBC1AC11101C02E
:1031A00011E0802F0E94990C88E091E00E94A70C0A
:1031B0008B2D0E94990C88E091E00E94A70C812F32
:1031C0000E94990C80E00E94670B81E0C11180E0B1
:1031D0000E94180782E0801B0E94180784CB8EE6AD
:1031E00092E00E94A70C0E94E60A80E992E00E9409
:1031F000A70C0E94B40689E992E0DECC811128CBAD
:103200009111E4CCFACB852D8370811141C03DC072
:10321000F501C491C11579F0CF3F39F40E94B4068D
:103220003394FFEFAF1ABF0A3DC0CE3FC9F38C2FD6
:103230000E944F0CF5CF80E29EE40E94880E8091A0
:10324000120187FFDECB24E0522E00E010E0C8011F
:103250008F5A9D4F5C01FC0180E092E1492EC491A0
:10326000C03211F0CE3F09F4482E8F5F3196833182
:10327000B1F75110C8CF80E29EE40E94880E811100
:10328000DACF8091120187FDDECF0E94140B80E01F
:1032900060E0880F0E94D20AA8955394E52DE37050
:1032A0005E2E312C3410B4CFC11509F4C4CF030DF8
:1032B000111DF801EF5AFD4FE491E03209F0C7CF3C
:1032C0000F5F1F4FC4CF0E94E00A8DE592E00E947D
:1032D000A70C8BEC0E94C5070E94620F80E090E073
:1032E00008950F931F93CF93DF9385E00E94FC070F
:1032F00085E00E94F807EC018C01000F111F000F00
:10330000111F0A561F4F10920B01043883E0180753
:1033100070F489E991E00E94A70C0E94600B81E0A3
:1033200080930B01DF91CF911F910F91089588EA4F
:1033300091E00E94A70C62E0C8010E94FC0D0E946F
:10334000B406CA3F86E0D807B0F4C333D64060F471
:1033500081EA92E00E94A70C0E94600B8DEC0E9413
:10336000C5070E94620FDECF8BEA92E00E94A70C95
:103370000E94600BD7CF85EA91E0F8CFFC019C0159
:10338000261B370BCA0170E060E0A901460F511DF2
:10339000452F5527620F240F351FAC01470F511DD4
:1033A000452F5527780FDA01AA0FBB1F8A0F9B1FE5
:1033B0004B3E20F4E217F30740F7089580E090E0D9
:1033C0000895A6E1B0E0E7EEF9E10C948A3889832C
:1033D0006A834B83A8952A81E22FF0E0E55BFD4FDD
:1033E0003491398B330F3C8B33967490E42FF0E09B
:1033F000E55BFD4F449148873396B490E82FF0E0A9
:10340000E55BFD4F6490862D880F888B33969491F1
:103410009E8B45B98988842A84B897B998B98A81DE
:103420000E94F8077C01E989E4B98A810E94F807C3
:103430006C0114B80E94AD0715B884B88A810E9447
:10344000F807B7010E945A088C0177B818B8F885B8
:10345000F629F987F5B9F4B989810E94F8070E9425
:103460006008982EA92E15B80E94AD0765B889810D
:103470000E94F8070E9460088E879F8764B8898140
:103480000E94F8070E9460081C016E857F85892DC7
:103490009A2D0E945A089C018032914028F40032F3
:1034A00081E0180708F412C1EE85FF850E0F1F1F7B
:1034B0002E0D3F1D0217130718F0FF86EE8616012A
:1034C0002091730180918301820F9927991F0297A0
:1034D0004CF0213009F0F9C0909170018091800189
:1034E0009813F3C01885110FF12FF629FD8B098968
:1034F000012B2E853F852437310508F45AC2C901B6
:103500000A96880F991F2816390608F052C23E897C
:1035100037B938B904B98A810E94F5077C018B81DB
:103520000E94FC07D82E092F15B98A810E94F50741
:103530009701295A3D4F18B877B84D8944B945B914
:103540002817390708F0AEC08B810E94F507883430
:103550009F4008F06DC084E295E090932F01809326
:103560002E01F0926901E09268016D2D702FC70164
:103570000E94650890936F0180936E019701A0E10E
:10358000B7E20E9465382091190130911A0140E09C
:1035900050E00E94273830936B0120936A018C8998
:1035A000812B84B915B8FE89F7B9F8B98B810E94CF
:1035B000FC07F82E092F8A810E94F5076F2D702FC6
:1035C0000E94650880936C0190936D0120912E01FB
:1035D0002F70243079F118B8B728B7B864B82985A6
:1035E00025B989810E94F807F82E9C830E94600803
:1035F0008C018A810E94FC07BC01C0901B01D09005
:103600001C018F2D9C810E9465089601DC010E949F
:103610006538980140E050E00E94273830936901F6
:1036200020936801809173018F5F809373012AC496
:1036300082E292CF40916A0150916B0160916E01DC
:1036400070916F019BDE9C01892B09F114B93E89B1
:10365000372937B98A810E94F507182F9C8317B83C
:10366000282F3C81A0E1B7E20E9465382091170124
:103670003091180140E050E00E942738A901612FE5
:103680007C8180916C0190916D0178DE9C0130937A
:1036900069012093680180912E018F70843009F4B4
:1036A000C1CF99CF89810E94F5077C018B810E944F
:1036B000FC07D82E092F65B889810E94F507895A21
:1036C0009D4F8E159F0508F4C5C0610114B815B84B
:1036D00017B8E7ECCE16E1E0DE0608F45DC518B8D1
:1036E000F889F4B918EC0E89072907B981E00E941E
:1036F000C50777B889810E94FC07429710F01A9598
:10370000A1F7288924B925B961E088854BD789813B
:103710000E94F8075C013C8934B915B84E8947B955
:1037200048B960E088853ED78A810E94F8070E94E8
:1037300060088C01898984B98A810E94FC077C0118
:1037400089810E94F807B7010E9465087C018A817F
:103750000E94FC076C0189810E94F807B6010E9453
:10376000650897012C5E3F4F2817390708F467C09A
:1037700018B877B864B865B861E0888513D78A81CE
:103780000E94FC076C0189810E94F807B6010E9423
:1037900065086C01E816F90608F0E6C4988994B942
:1037A00095B989810E94F8079C018501E8ECF0E059
:1037B000083446E0140730F4F80143E0F695E79545
:1037C0004A95E1F788EEC81683E0D80608F0DDC414
:1037D000C60164E670E00E940038C601875991096D
:1037E0008938914108F0D8C42C153D0508F0D4C49F
:1037F000C8018E0F9F1F8C159D0508F0CDC4601762
:10380000710708F0C9C480912F01833018F483E058
:1038100080932F0120918501822F90E0FC01EA57CF
:10382000FE4F398130834A814683FC01EE0FFF1F32
:10383000EE56FE4FD182C0822F5F2093850117B8CC
:1038400018B814B815B88EE20E944F0C6696E2E1E3
:103850000C94A6388E8988B987B98B810E94F507A8
:10386000813D934008F46AC084E395E090932F0172
:1038700080932E01B7018D2D902F0E9465089093A3
:103880007F0180937E01C7010E9460089C01A0E136
:10389000B7E20E94653820911B0130911C0140E085
:1038A00050E00E94273830937B0120937A0118B8AA
:1038B00077B88889812B84B985B989810E94FC07F2
:1038C000F82E092F8B810E94F5076F2D702F0E9413
:1038D000650880937C0190937D0120912E012F70CB
:1038E000243071F1FE89BF2AB8B8B7B815B8298558
:1038F00024B989810E94F807F82E9C838A810E944E
:10390000FC078C01C0901901D0901A01BC018F2DC9
:103910009C810E9465089601DC010E94653898012F
:1039200040E050E00E9427383093790120937801DD
:10393000809183018F5F8093830145C182E395CF9E
:1039400040917A0150917B0160917E0170917F01DD
:1039500015DD9C01892B11F115B914B93E8938B9CF
:10396000732A77B889810E94F5070E9460088C014C
:1039700017B89C01A0E1B7E20E94653820911501BB
:103980003091160140E050E00E942738A901B801AB
:1039900080917C0190917D01F1DC9C013093790153
:1039A0002093780180912E018F70843009F4C0CF6C
:1039B00099CF18B877B865B84D8944B989810E9404
:1039C000F8078A8B9B8B0E9460088C839D838B8178
:1039D0000E94FC078E839F83510184E6A80EB11CD0
:1039E000EC81FD81B101AE16BF0608F0EEC0CF013B
:1039F0000E9465087C0120911B0130911C0140E070
:103A000050E060E871EA83E09CE10E942738D7012A
:103A10000E947A38EE81FF819F0140E050E00E94D1
:103A2000273869017A0114B815B8FE89F8B9F7B9D1
:103A300081E00E94C50784B88A810E94F8078F350B
:103A40009D4008F46BC104B98A810E94F5072C01DE
:103A50008B810E94FC078C879D8789810E94FC07CF
:103A60008A879B878C859D85813D974008F4E3C0BC
:103A700084E080932F018DE080932E018201241435
:103A8000350410F4021913098090190190901A015D
:103A9000A12CB12C60E871EA83E09CE1A5019401BE
:103AA0000E942738D8010E947A38EC85FD859F0155
:103AB00040E050E00E94273880918301811571F029
:103AC0008091740190917501A0917601B091770178
:103AD00082179307A407B50708F097C020937401D5
:103AE0003093750140937601509377019201A0E1E4
:103AF000B7E20E946538A50194010E9427383093EF
:103B00007B0120937A016C857D858A859B850E9447
:103B10006508909379018093780181E04091740168
:103B20005091750160917601709177014C155D059A
:103B30006E057F0508F06BC0C0927401D0927501CC
:103B4000E0927601F09277016E817F818A899B896C
:103B50000E94650890937901809378012C813D81C2
:103B6000A0E1B7E20E94653820911B0130911C0151
:103B700040E050E00E942738205F384D30937B01B1
:103B800020937A01C0901901D0901A01E12CF12CF8
:103B90009101A0E1B7E20E946538A70196010E9459
:103BA000273830937D0120937C012E853F85A0E14D
:103BB000B7E20E946538A70196010E94273830932A
:103BC0007F0120937E0181E024C08C819D810E9431
:103BD00065087C01F985F4B989810E94F8078A8B10
:103BE0009B8B0E9460088C839D838B810E94FC07C5
:103BF0008E839F836E817F81C7010E9465089C012F
:103C0000A4E6B0E00E94653805CF80E087CF81113F
:103C1000B9CF909183019F5F90938301811509F43F
:103C20000ECE8B81809380019A8190938101E981EE
:103C3000E093820104CEF1E62F16310408F06EC045
:103C400021ED421627E0520608F468C085E0809313
:103C50002F0182E180932E01C20186509F4FEA8599
:103C6000FB858E179F0708F042C083E180932E01E9
:103C7000172D17708B81806480937C00FBE0FC83A0
:103C8000CC24C394D12CEE24EA94E3E0FE2EA89534
:103C900061E0888587D404B986B181238115E1F379
:103CA000298924B980917A00806480937A00809178
:103CB0007A0086FDFCCF8091780090917900F70121
:103CC000E81BF90BCE0EDF1EFC81F150FC83F111D5
:103CD000DECFC601880F991F880F991F69E070E039
:103CE0000E94003870937F0160937E0121CEE090A6
:103CF0001901F0901A01B2018A859B850E9465081E
:103D00009701DC010E946538920140E050E00E947A
:103D100027383093790120937801AACF04B915B9D7
:103D20008A810E94F8076C018B810E94FC078E83B8
:103D30009C870E9460088C01AC14BD0408F0A4C0EC
:103D4000B101C6010E9465087C01209119013091E2
:103D50001A0140E050E060E871EA83E09CE10E94D3
:103D60002738D7010E947A38980140E050E00E943D
:103D7000273849015A0177B818B8398534B935B9A7
:103D800089810E94F8078C018B810E94FC078A8B35
:103D90009B8B8A810E94FC078C839A87003341E1C8
:103DA000140708F0DEC165B889810E94F8077C011C
:103DB00064B889810E94F8072C0115B881E00E943F
:103DC000C50765B889810E94F8079C0180E4481600
:103DD00086E0580608F076C02133314108F472C0FD
:103DE000C8018A569F4FE816F90608F06BC086E0B6
:103DF00080932F01809173018F5F809373016C8199
:103E00007A858A899B890E946508909369018093CD
:103E100068016C817A85C8010E94650890936F01E2
:103E200080936E0114B815B878B881E00E94C50778
:103E300064B889810E94F807853F910518F5E985E6
:103E4000E4B98B810E94F807813D9340D8F08981C5
:103E50000E94FC078D3D9240A8F064B889810E94C1
:103E6000F8078D3D924070F065B881E00E94C5076B
:103E700015B889810E94F807853F910518F487E0FD
:103E800080932F0181E0F2C084B8288525B98A810A
:103E90000E94F8076C018B810E94FC078E839C872F
:103EA0000E9460088C01C6012C143D0410F4821994
:103EB0009309B8010E9465089C01A4E6B0E00E9445
:103EC000653852CF77B8488544B945B981E00E943A
:103ED000C5078D8984B985B989810E94F8078C014D
:103EE0000E9460082C018B810E94FC0789879A87B9
:103EF0000E9460088C839D838A810E94FC077C015C
:103F0000EC81FD81EE3FF94008F4C2C084E080936B
:103F10002F018CE080932E01B101C2010E9465083F
:103F20008C0120911B0130911C0140E050E060E8C1
:103F300071EA83E09CE10E942738D8010E947A3818
:103F4000EC81FD819F0140E050E00E942738809184
:103F50007301811571F08091640190916501A091C8
:103F60006601B091670182179307A407B50708F0AF
:103F700079C02093640130936501409366015093AA
:103F80006701B70189859A850E9465089093690148
:103F9000809368019201A0E1B7E20E946538209108
:103FA0001B0130911C0140E050E00E942738309303
:103FB0006B0120936A0181E0409164015091650199
:103FC0006091660170916701481559056A057B0586
:103FD00008F04AC08092640190926501A092660147
:103FE000B0926701B6018E819C850E94650890930E
:103FF0006901809368019601A0E1B7E20E946538EB
:104000002091190130911A0140E050E00E942738B8
:10401000205F384D30936B0120936A019101A0E13C
:10402000B7E20E9465382091190130911A0140E0F1
:1040300050E00E94273830936D0120936C012E854B
:104040003F85A0E1B7E20E94653820911B013091C5
:104050001C0140E050E00E94273830936F0120930C
:104060006E0110CF80E0A8CF8111D8CF909173015D
:104070009F5F90937301811509F4E1CBFB81F0936D
:1040800070012981209371013A8130937201D7CB5D
:10409000F1E62F16310408F064C029E442162DE041
:1040A000520608F45EC085E080932F0182E0809381
:1040B0002E01C70186509F4F80179107E0F583E0DE
:1040C00080932E013E893770F32E8B81806480931C
:1040D0007C004BE04C8301E010E0A89560E088850F
:1040E00061D28D8984B985B986B18F218111FCCFC8
:1040F00064B880917A00806480937A0080917A001D
:1041000086FDFCCF8091780090917900080F191FEF
:104110009C8191509C839111E0CFC801880F991F19
:10412000880F991F69E070E00E94003870936F015A
:1041300060936E0177CAC0901B01D0901C01B7013B
:10414000C8010E9465089601DC010E946538920151
:1041500040E050E00E9427383093690120936801C5
:10416000B1CF17B818B8B1CAEC89E4B915B8FE894F
:10417000F7B9F8B960E0888515D28A810E94F807FE
:104180000E9460089C01670111CBB60194E076950E
:1041900067959A95E1F721CB6A81898101D04FCB50
:1041A000A6E0B0E0E6EDF0E20C948C388D836E83EF
:1041B000A8952E81822F90E0FC01E55BFD4F549085
:1041C000339624913D81432F50E0FA01E55BFD4F8A
:1041D000D4903396B4906091830130917301630F52
:1041E0007727771F672B09F066C0A89560915A0161
:1041F00070915B01660F771F660F771F7093230125
:104200006093220160915C0170915D01660F771FE0
:10421000660F771F70932101609320013EEB30936E
:104220001E013091850166E871E0DB01480F591FDE
:104230008A2F861B831710F118B827B9D4B8D5B8C0
:1042400000E010E0CC24C3948E810E94F807982EE1
:10425000892E78018D810E94FC078C018E199F099F
:1042600097FF03C091958195910903970CF46BC159
:10427000A895C39489E1C812E7CF0AC09D9115960D
:104280008C911597890F9927991F8417950781F6A7
:1042900080915A0190915B019093230180932201B8
:1042A00080915C0190915D019093210180932001A8
:1042B00089E180931E012696E0E10C94A838A5E8D8
:1042C000CA16A1E0DA0620F724EAE21622E0F20696
:1042D00008F0B3C038E9A316B104D0F2C6010E94B9
:1042E0006008AC019601A8E9B7EB0E9465389A0115
:1042F00040E050E00E94273829013A01C5010E94A0
:1043000060089C01A8E9B7EB0E946538950140E080
:1043100050E00E94273888E7C8168FE0D80608F0DA
:1043200070C0F2E0440C551C661C771CFA95D1F75E
:10433000C301B201620F731F841F951F25E030E097
:1043400040E050E00E942738A4E6B0E00E947A38AE
:104350006455724F8F4F9F4F4B015C0110912F019D
:10436000143008F095CF9D819150AE819A0F9983BA
:10437000892F90E0FC01EC55FE4F2081880F991F9A
:10438000880F991F86559E4FDC01211509F4C3C083
:10439000CD90DD90ED90FC90A50194012C193D0984
:1043A0004E095F0957FF07C05095409530952195FC
:1043B0003F4F4F4F5F4FAAE0B0E00E947A38B4E61B
:1043C000CB0ED11CE11CF11CC80CD91CEA1CFB1C37
:1043D0006C157D058E059F0508F05ACF133019F036
:1043E00081E080932F0182E080838091A301E82FF8
:1043F000F0E0E955FE4F298120838F5F8093A30170
:1044000047CF98E7A9169FE0B90670F4CA01B90131
:10441000E2E0660F771F881F991FEA95D1F7640DB8
:10442000751D861D971D8ACF240D351D461D571DF0
:10443000569547953795279587CFC0901B01D0900B
:104440001C01692D782D0617170708F4B801C8015B
:104450000E9465089601DC010E94653869837A83B1
:104460008B839C83C8010E9460089C0140E050E05F
:1044700069817A818B819C810E94273849015A0188
:10448000C0901901D0901A01C3016E147F0408F482
:10449000C701B7010E9465089601DC010E946538DA
:1044A000970140E050E00E9427380837BFE01B0723
:1044B000B0F462E0880C991CAA1CBB1C6A95D1F769
:1044C000C501B401620F731F841F951F25E030E002
:1044D00040E050E00E94273849015A013FCF88E769
:1044E000E8168FE0F80670F4CA01B90152E0660FD1
:1044F000771F881F991F5A95D1F7680D791D8A1D5E
:104500009B1DE4CF820E931EA41EB51EB694A794E5
:104510009794879423CF8D929D92AD92BC921397DE
:1045200081E08083B5CE550C54B88E810E94F80787
:104530005C01003CB4E41B0708F4C1CEB0EBCB1621
:10454000BDE4DB06C0CEDD0C15B8D4B88D810E9469
:10455000F8078135910508F09BCED5B88D810E9472
:10456000F8076C01B7B8B8B815B854B8E12CF12CFD
:10457000442443948D810E94F8073C0157018E81A9
:104580000E94FC077C018A199B0997FF03C0919543
:104590008195910903973CF2A895439499E14912BA
:1045A000E9CF76CECF93C82FC09595B160FF0FC0ED
:1045B000982B95B994B1892B84B90E94C40784B112
:1045C0008C2384B985B18C2385B9CF9108959C2320
:1045D000F0CFA0E0B0E0EFEEF2E20C9493388AE086
:1045E000D82E9FE3B92E29E0C22E17B818B815B8F7
:1045F000B4B880E00E94F8078C0181E00E94FC07BB
:10460000EC0182E00E94FC079C0180912F0189301F
:1046100099F417B814B81093370100933601D0936A
:104620003901C093380130933B0120933A01CDB753
:10463000DEB7E9E00C94AF380430110550F4C43013
:10464000D10508F046C02430310518F381E08260BE
:1046500008C081E0083E134008F080E0C83ED34027
:10466000B0F3283E334008F4846087B9C0E0D0E05E
:10467000A89580E00E94F1077C0181E00E94FC0780
:104680008C0182E00E94FC079C0184E1E81685E031
:10469000F80608F4389A043195E0190708F4399AB5
:1046A000243185E0380708F43A9A96E0E916F104D7
:1046B00030F40630110518F42630310538F0219613
:1046C000C43F81E0D807A1F6C0922F0100E010E0BE
:1046D00006C081E0C3CF0E94B3070F5F1F4FC01712
:1046E000D107C9F7DA9409F080CFA1CFCF92DF923A
:1046F000EF92FF92CF9320913C0130913D01409188
:104700003E0150913F0180914E019AE0C92ED12C7B
:10471000E12CF12CC1E0C80F213A96E8390791E06D
:1047200049075105E0F480934E01A0912201B09118
:1047300023010E947A3828E833E140E050E00E94EB
:10474000273820933C0130933D0140933E01509324
:104750003F01CF91FF90EF90DF90CF900895CA0175
:10476000B901A70196010E9427388C2FD3CFA0E072
:10477000B0E0EDEBF3E20C949038C82FD62F880F01
:104780008C0F9FEF960F890F80931D01EC2FF0E0A7
:10479000E55BFD4FD490862F90E0FC01E55BFD4F7B
:1047A0001491FC01E25BFD4FC49080912F01813098
:1047B000D1F18091850126E831E0F901D9019A2FE4
:1047C000921B9817A8F1109249011092480181EFAD
:1047D00080934E0110923C0110923D0110923E01D7
:1047E00010923F01F6DE18B8C7B814B915B98C2F6E
:1047F0000E94FC078C018D2F0E94FC0714B81092B8
:104800003501109234017C01E01AF10A9E2C8F2CA4
:104810008091340190913501843F9140C8F017B8E0
:1048200018B814B815B8CDB7DEB7ECE00C94AC38B6
:1048300016969C9116979D1308C09C919C1305C0D9
:10484000448555854C3D554070F311963296B7CF4F
:10485000D5B8D4B80E94AD0714B815B80E94B407F3
:10486000A8958C2F0E94FC078701080F191F8091C3
:10487000340190913501A92CB82C8E37910518F090
:104880000B34110564F20D3221E012070CF05FC108
:104890008091340190913501019690933501809378
:1048A0003401B6CF96DE15B887E087B918B81D2D4C
:1048B000110F14B980E480937B0084E580BF8C2FB6
:1048C000806480937C0086E180937A000E94B70721
:1048D00010923501109234011092800010928500E0
:1048E0001092840087E286BB81E280936F0081E0B2
:1048F0008093330115B990912F01953009F00EC1C5
:104900008093810081E090E00C2E01C0880F0A9412
:10491000EAF78095877087B9F89483B7817F83BF62
:1049200080913301811589F083B7816083BF7894CA
:10493000889583B78E7F83BFF894A89580913401C2
:10494000909135018034964059F778941092810007
:10495000009186001091870010926F0086E9809385
:104960007A0014B815B88C2F0E94FC0720916001C2
:1049700030916101821B930B0C96909332018093CE
:10498000310180913401909135018032934008F0DB
:1049900046CF8091340190913501909347018093E7
:1049A0004601109345010093440184EF80934E012A
:1049B000809134019091350182349105C8F0609165
:1049C000440170914501809146019091470124E690
:1049D00030E040E050E00E942738209344013093BB
:1049E0004501409346015093470186EF80934E0165
:1049F000A0915801B0915901209144013091450195
:104A000040914601509147010E947A3820E233E0FC
:104A100040E050E00E942738209344013093450144
:104A2000409346015093470120933C0130933D0150
:104A300040933E0150933F0159DE80914E01843FE7
:104A400009F05AC080903C0190903D01A0903E0139
:104A5000B0903F0180EA88168FE09806A104B10467
:104A6000C0F4A50194012C543F4F4F4F5F4F60EAB3
:104A70007FE080E090E00E942738820E931EA41E03
:104A8000B51E80923C0190923D01A0923E01B092F1
:104A90003F0180903C0190903D01A0903E01B0907C
:104AA0003F0131E020E08114910491E0A906B104B6
:104AB00010F4382D292DC9019093B6012093B70128
:104AC00080911D0190E0895C9C4F0E941539482F10
:104AD00050E060E070E0881519041A041B0410F51A
:104AE000841A950AA60AB70A80923C0190923D0169
:104AF000A0923E01B0923F01D4B880913C019091C8
:104B00003D01A0913E01B0913F014997A105B1053A
:104B100008F0B2C084CEE12CF12C57C08093810004
:104B2000C7B8FACE24E1820E911CA11CB11C8416D8
:104B30009506A606B70610F40E94711310923C0168
:104B400010923D0110923E0110923F01D5CFE090AE
:104B50003401F0903501E114F10429F4053185E0C8
:104B600018070CF09FCE8091340190913501E12C13
:104B7000F12C0E94AE078C2F0E94FC079C01A89587
:104B80009FEFE91AF90A80913401909135018E1551
:104B90009F0578F72A0D3B1D6801C21AD30A1C1421
:104BA0001D040CF0B8CF29ECC216D1040CF037CE9E
:104BB00028EE33E0D6010E9474389801012E000CD3
:104BC000440B550B0E942738790180913401909154
:104BD00035010196A0E0B0E0809344019093450137
:104BE000A0934601B0934701C8018C0D9D1D0E9402
:104BF000C1082091440130914501409146015091F6
:104C00004701DC010E947A386093440170934501AA
:104C1000809346019093470160933C0170933D015E
:104C200080933E0190933F0187EF80934E015EDDBC
:104C300080903C0190903D01A0903E01B0903F01DA
:104C40008AE193E00E941539A8EEB3E0A81BB109F0
:104C500087FDB395A50194010E94843824E630E0D5
:104C600040E050E00E94273820933C0130933D0102
:104C700040933E0150933F0180918501811529F0B9
:104C800080912F01853009F0CACD88E080932F01F3
:104C900080914E0190914F019817C4F08913BFCDB8
:104CA00040913C0150913D0160913E0170913F0166
:104CB0000091400110914101209142013091430146
:104CC000041715072607370708F0A9CD40913C01C6
:104CD00050913D0160913E0170913F014093400130
:104CE00050934101609342017093430180934F01BF
:104CF000F0924B01E0924A01D0934C01C0934D01D8
:104D00008ECD1F921FB61F9211248F939F93B5993A
:104D100004C080913301811109C0B59B10C08091FE
:104D20008600909187008A3F910548F48091340174
:104D300090913501019690933501809334019F91B4
:104D40008F911F901FBE1F9018951F921FB61F9224
:104D500011248F939F9310923301B09B10C08091C8
:104D60008600909187008A3F910548F48091340134
:104D700090913501019690933501809334019F9174
:104D80008F911F901FBE1F901895A0E0B0E0EBEC34
:104D9000F6E20C94903888E893E190935B0180935D
:104DA0005A0190932301809322018EEB80931E0180
:104DB00018B880E187B90E94BC0717B884E00E9448
:104DC000F807AC018B5C9840833F9140A0F481E0F0
:104DD000809330012091220130912301AFEBB9E0A3
:104DE0000E9465389A0140E050E00E9427383093D5
:104DF0005B0120935A0180915A0190915B0190933D
:104E00002301809322018EE00E94FC078EE00E9425
:104E1000F80790936101809360010E946E08D9DBCE
:104E200018B8C1E0C7B9C5B9C4B980E00E94F80795
:104E30008C0182E0C82EC7B8D4E0D5B9D4B981E0DE
:104E40000E94F807080F191FD7B990E1D92ED5B8DD
:104E5000D4B882E00E94F807080F191F15B8C8B926
:104E6000C7B9C4B980E00E94F8070E9460087C01BD
:104E7000C8B8C7B8D4B981E00E94F8070E9460089A
:104E8000E80EF91ED8B9D7B9D4B882E00E94F80765
:104E90000E946008E701C80FD91F17B818B814B8E6
:104EA00080912201909123016C01CC0CDD1CC80E75
:104EB000D91EC8018C0F9D1FC81AD90AE12CF12CEC
:104EC0009801A0E9BAE10E946538A70196010E9405
:104ED000273849015A0130931801209317019E0188
:104EE000A0E9BAE10E946538A70196010E9427381F
:104EF00030931601209315012057354E30931C0135
:104F000020931B01C4018057954E90931A01809302
:104F1000190189E180931E01CDB7DEB7ECE00C9456
:104F2000AC38A0E0B0E0E7E9F7E20C949438D82F71
:104F3000C62F142F0E94990C88E091E00E94A70CC4
:104F4000FFD16C2F8D2F0E940A36C090B801D090EF
:104F5000B901E090BA01F090BB0180919E0187FDFC
:104F600005C0C114D104E104F10421F084E091E012
:104F70000E94A70C8C2F0E94990CC114D104E1044B
:104F8000F10431F00E94B4068091A7010E94180735
:104F9000111509F45AC0809109018F3008F055C0ED
:104FA0008650990B8F5B9C4F0E94A70C80E00E945B
:104FB0007C0BC114D104E104F10409F449C06091EF
:104FC000B8017091B9018091BA019091BB0103E0E1
:104FD00028E447EF0E94EC0C87E191E00E94A70CC7
:104FE0008EE493E00E941D3923E046E464EF0E94C2
:104FF000F10D8091BE019091BF01A091C001B091CF
:10500000C101892B8A2B8B2BF1F180E00E947C0B54
:105010006091BE017091BF018091C0019091C1016A
:1050200004E028E440E00E94EC0C82E191E00E9460
:10503000A70C23E040E26FEF8091BC019091BD018D
:105040000E94F10D0E94600B25C00E94600BAECF44
:105050008091A7010E94180780919E018E3F4CF617
:105060008FE291E00E94A70C60919F017091A001D6
:105070008091A1019091A20103E028E440919E015A
:105080000E94EC0CB6CF80E00E94670B8091080173
:105090008115C1F2CDB7DEB7E8E00C94B038EF92DD
:1050A000FF920F931F93CF93DF93182F0E94E00A74
:1050B00080914C010E94990C8BE491E00E94A70C16
:1050C0007CD360914C0180914D010E942409EC0138
:1050D0009093490180934801E0904A01F0904B0180
:1050E000CA3F8FEFD80720F489E091E00E94A70C17
:1050F00080914D010E94990C111509F446C08091D0
:1051000009019FE0981B892F0E94C90A89E690E057
:105110000E94A70C0E94E60A609140017091410133
:10512000809142019091430104E026E440914F01B7
:105130000E94EC0CCA3FDF4F68F48AE391E00E94C2
:10514000A70C22E04DE16EEF80914801909149015A
:105150000E94F10D0E94600B0E94ED0AE114F1041F
:1051600069F083E391E00E94A70C22E045E26FEF33
:1051700080914A0190914B010E94F10D0E94600BB9
:10518000CDB7DEB7E6E00C94B2380E94600BC2CF18
:105190008F70811104C00E94F40A0C947119089553
:1051A0008F3021F490910B01913011F08F5F0895B1
:1051B00080E00895CF9384E790E0D6D76AE080E05E
:1051C0000E94D20A85E493E00E94A70CC0E00E94EE
:1051D0003F0F60E082E00E94D02062E080E00E9409
:1051E000D0200E94E00A8091A3018115C9F041E01E
:1051F00062E080E096DE8C2FCBDF88EE93E00E94A9
:10520000880E811109C080911301843028F48C2FFD
:10521000C7DFC82F8A3FD8F20E94140BCF910895A0
:1052200084E790E00E94A70C85E493E00E94A70C1D
:105230000E94E60A8FE30E944F0C80E00E94670BF9
:105240000E94600BD8CF0F931F93CF93DF93C0E0E2
:10525000D8E012EF0FE00E943F0F60E082E087DAB3
:10526000D0932F0180914E01843FE1F480913C0165
:1052700090913D01A0913E01B0913F01843691058E
:10528000A105B10578F440E060E082E00E94CC33F3
:1052900060933C0170933D0180933E0190933F01E8
:1052A00010934E0180914E01823F6CF180934F012B
:1052B00080913C0190913D01A0913E01B0913F0150
:1052C0008093400190934101A0934201B093430128
:1052D00081E0E5DE8C2F5CDF88EE93E00E94880E93
:1052E00081110AC080911301843030F48C2F58DF73
:1052F000C82F8A3F08F4AFCF0E94140BDF91CF91E3
:105300001F910F9108950E94E00A8DE690E00E949F
:10531000A70C80910901902F981B892F0E94C90A20
:1053200089E690E00E94A70C0E94E60A8FE30E94A3
:105330004F0C0E94600B0E94ED0A0E94600BCACFC6
:10534000A5E1B0E0E6EAF9E20C948A3882E08093C5
:105350009E0180912F01813009F0CCC18091A30181
:10536000813009F0C7C12091A701298B34E0239F28
:10537000F0011124E655FE4F408051806280738019
:1053800089E0481682E558066104710408F0B2C14C
:1053900010E08989123008F0B1C10E940E07982EE2
:1053A000892EE92FF0E0E25BFD4F349090E0FC01A4
:1053B000E55BFD4FE49115B818B8012F017020EF9F
:1053C0004216510408F0A0C101119EC1609019015C
:1053D00070901A0130E9631A3AE1730A21E030E073
:1053E00002C0220F331F8A95E2F7C901832987B9CA
:1053F00044E1242E892D0E94F5075C01882D0E942E
:10540000FC07A82AB92A34E0A316B10410F02A94A4
:1054100089F780E480937B0094E590BF892D8064B8
:1054200080937C0026E120937A00E12CF12C1092ED
:105430008000109285001092840037E236BB0E94F3
:10544000B707011168C181E88093810038B886B33D
:1054500085FF6AC118B81092810030E236BB2091F6
:105460008600309187006901409184005091850049
:105470002417350708F466C186E980937A0034E181
:10548000332E892D0E94F5075C01882D0E94FC07B0
:10549000A82AB92A94E0A916B10410F03A9489F721
:1054A0008090170190901801840C951C860C971C15
:1054B00020915E0130915F0180E968168AE17806EB
:1054C00008F048C169E191EEC916D104E104F10484
:1054D00030F4C60165E070E00E9400386451285243
:1054E0003109261B310967FD339566E0862F90E070
:1054F000A0E0B0E06C151D041E041F0408F033C1C9
:10550000C81AD90AEA0AFB0A011529F082E2C80E74
:10551000D11CE11CF11C90E5E916F10408F428C146
:10552000C12CD12C7601A12CB12CA8EEB3E00E94A5
:1055300065386A8B7B8B8C8B9D8BA0912201B091FF
:10554000230193010E946538A50194010E94273828
:10555000442755276A897B898C899D890E94273831
:10556000C9010E940009FC01612E712CA501940162
:10557000C701B6010E94E5376A8B7B8B8C8B9D8BB4
:10558000BF0180E090E023E0660F771F881F991F1E
:105590002A95D1F76B5F7F4F8F4F9F4F2AE030E006
:1055A00040E050E00E9427386A897B898C899D8978
:1055B0000E94273884E0189FF001112481E090E0D8
:1055C0008C0F9D1FE80FF91F208331834283538383
:1055D000011117C09CE0C916D104E104F10488F060
:1055E0001F5FF3013196EE0FFF1FEE0FFF1F81E0EB
:1055F00090E08C0F9D1FE80FF91F208331834283B9
:105600005383A8951F5F143009F0C3CE18B884E007
:105610000E94C50791E04D815E816F817885098187
:105620001A812B813C81041715072607370708F0DC
:1056300090E04D855E856F85788909851A852B8573
:105640003C8582E0041715072607370708F483E036
:1056500024E0829FD001112421E030E02C0F3D1F77
:10566000A20FB31F34E0939FF001112421E030E03A
:105670002C0F3D1FE20FF31F0D911D912D913C91B9
:10568000408151816281738104171507260737070E
:1056900008F0892F34E0839FF001112421E030E0ED
:1056A0002C0F3D1FE20FF31F4081518162817381F6
:1056B00040939F015093A0016093A1017093A201B8
:1056C00080FD63C030EF4316510408F05EC08BEFDD
:1056D00080939E0180919F019091A001A091A101D2
:1056E000B091A201892B8A2B8B2B11F410929E0171
:1056F00017B814B86596E2E10C94A6380E940E071C
:105700009827892798274BCEE4B937B860901901BC
:1057100070901A016DCE38B80E94C00790E296BB17
:1057200021E82093810093CE80FF91CE91E096BB3B
:10573000A89597012F5F3F4F79012035310509F07A
:1057400086CE88CE80FF98CE81E086BB8FEFE81AA8
:10575000F80A92CEC40160EB76E30E940038695FDC
:10576000285D3F4FC3CEC12CD12CE12CF12CCCCEE7
:105770008BE0C816D104E104F10408F4D4CE91E022
:10578000C91AD108E108F108CECE8CEF80939E01B2
:10579000CB01BA016B5F7F4F8F4F9F4F2AE030E004
:1057A00040E050E00E94273820939F013093A001F1
:1057B0004093A1015093A2018DCFA0E0B0E0E3EEB1
:1057C000FBE20C948C38E0904A01F0904B01E1141C
:1057D000F10409F08BC0E0914C01F0E0E25BFD4F79
:1057E000D491E0914D01F0E0E55BFD4FC4910E9442
:1057F000E92218B815B8D7B9C4B980914D010E94F3
:10580000FC078C01D0914F018CE08D0F843008F0A3
:105810006DC08091400190914101A0914201B091F1
:105820004301D15F0596A11DB11D2C013D01BC01B5
:10583000CD012AE030E040E050E00E9427384901E5
:105840005A01DA01C901DF5FD73061F72AE5421654
:1058500023EC52066104710408F048C0059708F46F
:1058600045C0C5B9C4B9C0E0D0E0C815D90508F431
:1058700042C014B815B8A89585E080931E018091A8
:105880004D010E94FC07EC0108171907C0F5C01B69
:10589000D10BC12CD12CC814D904A0F180914D0199
:1058A0000E94FC079C0189E180931E01A8950217C4
:1058B000130718F47901E01AF10AEC16FD0680F4DA
:1058C0009E012E193F09A4EFB1E00E9465389E01A8
:1058D00040E050E00E94273830934B0120934A016A
:1058E0000E94E92217B818B814B815B8CDB7DEB7BA
:1058F000E0E10C94A8380E94BE072296B6CFC0E023
:10590000D0E0C7CF0E94BE078FEFC81AD80AC3CF16
:105910008B3008F08B50811107C08FE192E00E941C
:10592000A70C0C94600B0895813019F483EF91E07B
:10593000F6CF823019F488EE91E0F1CF833019F47C
:105940008FE790E0ECCF843019F484E790E0E7CF64
:10595000853019F48DE690E0E2CF863019F487EDBA
:1059600091E0DDCF873019F487EC91E0D8CF883013
:1059700019F48EEA91E0D3CF893019F489E092E0EE
:10598000CECF8A3071F680E092E0C9CF0F93CF93EB
:105990008FE790E0E9D3C0E010922F0160E082E051
:1059A0005DD480912F01883009F04FC00E94E60A33
:1059B00083E40E944F0C0E94B806609140017091F0
:1059C0004101809142019091430103E026E440911E
:1059D0004F010E94EC0C0E94600B60914C01809181
:1059E0004D010E94240990934901809348010E942F
:1059F000ED0A8BE391E00E94A70C80914801909101
:105A000049018A3F2FEF9207E0F422E04DE16EEF6B
:105A10000E94F10D0E94600B8C2FBADB88EE93E0A0
:105A20000E94880E81110AC0809113018B3030F4DE
:105A30008C2FB6DBC82F8A3F08F4AECFCF910F91E1
:105A400008958FE30E944F0CE5CF0E94830B0E94C4
:105A5000ED0AE0CFA5E0B0E0E0E3FDE20C948A3887
:105A600083EF91E081D380E18093800010926F00FA
:105A700081E090E0909389008093880010928B00E1
:105A800010928A0083E086BB1092820088E08093A7
:105A9000810015B881E184B918B881E087B9229AEC
:105AA00089E08093810010E020E0FAE03F2E882416
:105AB000839431E03983B12CA12C912C41E14D83A9
:105AC0008AE0810F90E06EE170E00E941438262E8B
:105AD000F62E621761F00E94E00A83EF91E00E94C7
