:10000000D8C60000F3C60000F1C60000EFC600002D
:10001000EDC600000C949233E9C600000C94F50F75
:10002000E5C60000E3C600000C94F8250C94763376
:100030000C9484330C94D225D9C60000D7C6000096
:100040000C944F33D3C60000D1C60000CFC60000C9
:10005000CDC600000C94F60FC9C60000C7C600004C
:10006000C5C60000C3C60000E62FF72F903009F484
:100070009395E5B8C4B8B6EFB0937A00A5E0A09325
:100080007B00A8E0A093810010928000AFEFA093C6
:100090008500A0938400A6E0A093360010928B0008
:1000A00010928A00B3E0AFE3A91B51E0392F33303F
:1000B0002AF0A05CBC4F53953350F9CFB093890020
:1000C000A0938800A0917A00A4FFFCCFB6EBB09378
:1000D0007A00A2E0A0936F00A9E0A093810062E003
:1000E000A0E0A0937B00A1E0A09353008895E5B821
:1000F000C4B884FF1AC0A8E10000AA95F1F7EF93F5
:10010000FF93E7B1F8B1A4E0C2FCA2E0C0FCA1E01B
:10011000BF2FBA2BAE2BB8B904B9A7B9E7B9F8B954
:10012000FF91EF910BC00C947300ACE10000000054
:10013000AA95F1F725B9E5B8000004B9A0918400AB
:10014000A0918500B0918900A395AB1760F7A091AD
:100150007A00A4FFF3CFB6EBB0937A006A9571F7FB
:100160006091780070917900308186FD630F619312
:10017000308186FD731F80FF7193652F4A9579F753
:1001800010926F0010928100B6E0B0937A0008954B
:10019000640D6D0D760DC0F818181818F8C000071A
:1001A000060606060700FCF8F0E0C0FCFCC00F07DE
:1001B0000301000F0F00C0FCFCC0E0F0F8FC000FD2
:1001C0000F000103070FC0FCFC0000FCFCC0000F87
:1001D0000F00000F0F00F8F8181818181818070764
:1001E000060606060606181818181818F8F806065F
:1001F000060606060707C0C0C0C0C0C0C0C00000D9
:10020000000000000000C0C000806080008000038B
:100210000C0D020D0C0D60800080608000C0020D8E
:100220000C0D020D0C0300F8FC0242BC18101F0F4D
:1002300000040703F0F80C0C0CF8F00C0D0F000F85
:100240000D0C00F0F00000F0F0101F0F0204030787
:1002500000183C66663C180000000000000000002A
:1002600000000000000000000000000000001EFF71
:10027000FF1E000000000C0C000000160E0000160F
:100280000E0000000000000010FCFC10FCFC10013F
:10029000070701070701387C44FE448C18060E0846
:1002A0001F080F07181880C06030180603010000EF
:1002B00006068CDE7262D21E8C03070C0C0603024B
:1002C0000000002C1C0000000000000000000000E6
:1002D000E0F80C0600000001070C18000000060CF6
:1002E000F8E0000000180C0701004050F0E0E0F0DA
:1002F000500001010000010100C0C0F0F0C0C000CA
:1003000000000303000000000000000000000010D7
:100310001E0E0000C0C0C0C0C0C0C0000000000071
:100320000000000000000000000000000C0C0000B5
:10033000000080C060301806030100000000F8FCD7
:10034000864226FCF803070C080C070330180CFE45
:10035000FE00000000000F0F00000C0E82C2623E83
:100360001C0E0F0908080C0C0406424242FEBC0495
:100370000C0808080F07C0E0B098FCFE80000000E1
:10038000000F0F003E3E222222E2C2040C080808A1
:100390000F07F8FC262222E2C0070F0808080F0703
:1003A000060682C2623E1E00000F0F000000DCFE47
:1003B000222222FEDC070F0808080F073C7E42427B
:1003C00042FEFC000808080C070300000030300063
:1003D00000000000060600000000003030000000B1
:1003E0000010160E00000040E0B0180C04000000E1
:1003F000010306040090909090909000000000008F
:10040000000000040C18B0E04000040603010000E6
:10041000000C0EC2E23E1C0000000D0D0000F804AE
:1004200062929294F803040808080000F8FC8482A1
:1004300084FCF80F0F0000000F0FFEFE424242FE48
:10044000BC0F0F0808080F07F8FC060202060C0391
:10045000070C08080C06FEFE020206FCF80F0F0847
:10046000080C0703FEFE42424202020F0F08080872
:100470000808FEFE42424202020F0F000000000088
:10048000F8FC060282868C03070C0808070FFEFEA4
:10049000404040FEFE0F0F0000000F0F000002FE64
:1004A000FE02000000080F0F080000000000FEFE22
:1004B00000060E08080F0700FEFEB0180C06020F1B
:1004C0000F0103060C08FEFE00000000000F0F08DD
:1004D00008080808FEFC30C030FCFE0F0F000100C9
:1004E0000F0FFEFE38E080FEFE0F0F0000010F0F21
:1004F000F8FC060206FCF803070C080C0703FEFED6
:100500004242427E3C0F0F0000000000F8FC060251
:1005100006FCF803070C090A050BFEFE828282FE28
:100520007C0F0F0103060C081C3E226242C28406A7
:10053000080808080F07000606FEFE060600000071
:100540000F0F0000FEFE000000FEFE070F08080867
:100550000F07FEFE000000FEFE0103060C0603016D
:10056000FEFE00C000FEFE03070C030C0703061E80
:10057000F8E0F81E060C0F0300030F0C003E7EC0CF
:10058000C07E3E0000000F0F00000282C262321ED9
:100590000E0F0F08080808080000FEFE0202000007
:1005A000000F0F0808001C3870E0C0800000000039
:1005B0000001030700000202FEFE00000008080F11
:1005C0000F00040603010306040000000000000001
:1005D00000000000000000101010101010100000AB
:1005E000001C2C0000000000000000000090909013
:1005F000B0E0C0070F0808040F0FFEFE402020E007
:10060000C00F0F0808080F07C0E03010103020039B
:10061000070C08080C06C0E0202040FEFE070F086B
:1006200008040F0FC0E0B090B0E0C003070C08084A
:100630000C0420FCFE22260C00000F0F000000001E
:10064000E0F0101020F0F0091B12121A1F0FFEFE2E
:10065000402020E0C00F0F0000000F0F000010F638
:10066000F600000000000F0F00000000000000F680
:10067000F6000C1C10101F0FFEFEC0603010000FA3
:100680000F0103060C08000002FEFE00000000003F
:100690000F0F0800F0E010E010F0E00F0F0007006F
:1006A0000F0FF0E0101010F0E00F0F0000000F0F20
:1006B000C0E0301030E0C003070C080C0703F0E086
:1006C000101010F0E01F1F0404040703E0F01010E6
:1006D00010E0F003070404041F1FF0E03030107036
:1006E000600F0F00000000002070D09010706006B6
:1006F0000E0809090F061010FCFE1000000000078C
:100700000F080C06F0F0000000F0F0070F080808D2
:10071000070F00F0F00000F0F00003070C0C0703D7
:10072000F0F0008000F0F003070E030E07033070B6
:10073000C080C070300C0E0301030E0CF0F00000FE
:1007400000F0F0091B1212121F0F30301090D07001
:10075000300C0E0B09080C0C004040FCBE020200DD
:100760000000070F0808000000FEFE000000000067
:100770001F1F0000000202BEFC40400008080F07D7
:10078000000004060206040602000000000000004B
:10079000E0F0180C18F0E0010101010101010092E4
:1007A0009694B0E0C0070F0808040F0FC0E0B094A3
:1007B000B6E2C003070C08080C04C0E2B694B0E02F
:1007C000C003070C08080C04000014F6F200000037
:1007D00000000F0F0000000416F2F60400000000F5
:1007E0000F0F0000000012F6F400000000000F0FD1
:1007F0000000C0E0341632E0C003070C080C070309
:10080000C0E0321634E0C003070C080C0703F0F018
:10081000040602F0F0070F080808070FF0F00206C0
:1008200004F0F0070F080808070FC0E0311832E0A5
:10083000C00F0F0101010F0FF8F88A8B8988080F8C
:100840000F0808080808F8F8898B8A88080F0F082D
:1008500008080808000008FAFB09000000080F0F4C
:10086000080000020BF9FB0A000000080F0F080047
:10087000000009FBFA08000000080F0F0800E0F074
:100880001A0B19F0E003070C080C0703E0F21B0930
:100890001BF2E003070C080C0703F8F8020301F849
:1008A000F8070F0808080F07FCF8010302F8FC0717
:1008B0000F0808080F0700000000000000000000FB
:1008C0000000000000001E2121211200807F000096
:1008D000007E4A4A4A34000000000000FC4020101C
:1008E00008040201000000010101010101010101F0
:1008F000010101017F0488D0E0F0F8000000000051
:1009000000000000000000000000000000FC9494C3
:100910008400000102FC0000000000000000000054
:1009200000001E21212112E0C0804020100F000095
:1009300000C020202040000000FC00009E9E040318
:100940000303030200000020202324252523202068
:10095000203F00007B7B2142840480C00000000017
:1009600000000000000000000000FC9494840004DB
:100970000607070708F00000000000000000000064
:10098000000000803F2121120C00000000FF000049
:1009900000F0084848C80000FE0000E7818181C1DE
:1009A000E1F18181810100202020212121202020CE
:1009B0003F0000F340404041434740407FC00000BB
:1009C0000000000000000000000000004894949423
:1009D0006400000000FF00000000000000000000B4
:1009E0000000000000003F2121120C0000FF000069
:1009F00000F0084848D0000000000000FEFE04049B
:100A00000404040404070008080809090908087F09
:100A10003E1C08087F7F20202020202020E00000AE
:100A200000000000000000000000000000004894EA
:100A30009494640000FF000000000000000000002B
:100A400000FF003C0A090A3C002231292926000047
:100A500082868E9EBEFEFEBEDEEFF6FAFEFEFAF245
:100A6000E2C28200000008080804027984A4A46895
:100A700000FF000000000000000000000000000077
:100A8000000000000000000000FF0000F028242803
:100A9000F0001008FC000000000000000000000052
:100AA000003C0A090A3C00FF0000000000000000B2
:100AB00000000000000000000000040C1C3C7CFF53
:100AC0007C3C1C0C040000000000009EA1A9A99A17
:100AD000804323130B0703FF0303030303030000F7
:100AE000000000000000000000788484844800FFBB
:100AF000000000000000000000F00804E2110909F5
:100B0000090909090909091121C2040810E00000B6
:100B1000000102040407000000000080402010884B
:100B2000442310080403000000000000000000003F
:100B300000FE0100FC0201000000000000000000B7
:100B40000000000000000000007949497900000021
:100B50000000000000000000140029003E005300C7
:100B6000690080009700AE00C600DF00F8001201A7
:100B70002D01490165018201A001BE01DE01FF01D5
:100B80002102440268028E02B502DE020903350327
:100B900064039403C803FE0337047304B404F90424
:100BA00043059305EA054906B3062907AE07480839
:100BB000FF08DE09FD0A930C480F991BB903870350
:100BC00058032E030703E402C302A40288024E6FF7
:100BD000742063616C696272617465642120466F80
:100BE00072FF63616C6962726174696F6E20636C1D
:100BF000616D70207468652033FF70696E732074B6
:100C00006F67657468657220616E642073746172C9
:100C100074207769746820746865FF6B65792E208D
:100C200041636B6E6F776C656467652074686520DF
:100C300073656C662D7465737420776974682074AD
:100C40006865206B65792077697468696EFF327317
:100C50002E20446973636F6E6E6563742070696ED5
:100C60007320616674657220746865FF6D657373C7
:100C7000616765202269736F6C617465FF50726FE4
:100C8000626521222069732073686F776E2E20536E
:100C90006F66747761726520616E6420646F63753E
:100CA0006D656E746174696F6E2069732061742064
:100CB0006769746875622E636F6D2FFE6D696B7264
:100CC0006F636F6E74726F6C6C6572FE2D6E6574FF
:100CD0002F7472616E736973746F72FE74657374CE
:100CE000657220000104100102041100052020603B
:100CF000E0E0E00201000103C2C4C4C040070301F8
:100D000002040E080210FEFE7F7F000000000E00AD
:100D100008202121122060E0E0E0FEFE0402010034
:100D200001037F7F21C2C4C4C04094840007030133
:100D3000020411080310F1E1C14743410D080110FD
:100D4000FFFF0D080710FF818181F1E1C1FF4040E5
:100D500040474341091003081C3E7F10100508F866
:100D6000783858880708FFFFF7FB81FFFF0708FF67
:100D7000BB9DADADB3FF0708FFDBBDB5B5CBFF181D
:100D8000000720080808F80000002060A03FA060CD
:100D900020020202FF0202021010101F00000010C9
:100DA00008407E01013E01013E01013E01017E40FD
:100DB000400011241FBECFEFD8E0DEBFCDBF11E051
:100DC000A0E0B1E001C01D92A63CB107E1F711E03F
:100DD000A0E0B1E0EAE0F8E702C005900D92A03093
:100DE000B107D9F70E94D6140C94033C09C95D9849
:100DF000559A80FD599A80FF5998519A539A5A985A
:100E000067FD5B9A67FF5B985A9A5A9866FD5B9AF2
:100E100066FF5B985A9A5A9865FD5B9A65FF5B98E6
:100E20005A9A5A9864FD5B9A64FF5B985A9A5A984A
:100E300063FD5B9A63FF5B985A9A5A9862FD5B9ACE
:100E400062FF5B985A9A5A9861FD5B9A61FF5B98C2
:100E50005A9A5A9860FD5B9A60FF5B985A9A5D9A1D
:100E60005A985B98089597FF09C08F939F938DE2DE
:100E700012D59F918F91909581959F4F62E271E07D
:100E80004AE050E00E94B13B5AC5EDDF01C0EBDF04
:100E900080E201C58DE2FFC48DE3FDC4EF92FF92B5
:100EA0000F931F93182F062FF42E8FEE91E0C3D5CA
:100EB000EE24E0913D01F0913E018685E81611F4A3
:100EC000812F09C08485E81611F4802F04C0858520
:100ED000E81611F48F2DDFD4E3948E2D833049F77B
:100EE0001F910F91FF90EF900895EF92FF920F9353
:100EF0001F93182F062FF42E80E033D68AEE91E050
:100F00009AD5EE248E2D27D5C7DFE0913D01F091D3
:100F10003E018685E81611F4812F09C08485E81604
:100F200011F4802F04C08585E81611F48F2DB3D4F9
:100F3000AFDFE3948E2D833029F71F910F91FF903F
:100F4000EF900895682F80E092E0662309F491E025
:100F5000623009F481E008950F93082FEEEAF1E082
:100F6000880F880FE80FF11D608171818281938164
:100F7000643671058105910568F42091200127FDF3
:100F800009C0802FDFDF692FEED16EEF23E04DE146
:100F900007D704C04FEF04E02DE1FBD579DF0F91B7
:100FA0000895863058F4EDE9F1E0E80FF11DE80FFF
:100FB000F11D8081918163E0E8D66ACF08951F9387
:100FC000182F80917601882319F062DF80E063D4C6
:100FD0008AD38AEF91E02FD5812F82958F70E1DF40
:100FE000812F8F70DEDF1F91089580910601829519
:100FF0008F7018D08091060183701AD080910601FD
:10100000DECFE1E9F1E0E80FF11D0895CF93F9DFBC
:101010009081C681C91710F405D001C011D038DF06
:10102000CF910895EEDF8F93808195D48F9100C08A
:101030008F938CE292E0FFD48F91E3DF86818BC4A3
:10104000E0DF8F93868187D48F9100C08F9380E3F8
:1010500092E0F1D48F91D5DF80817DC403D002D09E
:1010600001D000D000D003D002D001D000D000D0F9
:1010700003D002D001D000D000D0A89503D002D078
:1010800001D000D000D003D002D001D000D000D0D9
:1010900003D002D001D000D000D003D002D001D0C4
:1010A00000D00000089582E090E0893C28F0885C40
:1010B00048EC849FC0011124009709F408954091E1
:1010C0008100477019F0D9DF0197F6CF8130910583
:1010D00019F002975EE303C057E180E090E0409191
:1010E000B200450F4093B30042E04093700047E0E8
:1010F00043BF889546E043BF10927000A895DCCFAF
:101100008F9384E0D1DF06C08F93CDDF03C08F9330
:1011100081E0CADF8F911F93182F106410937C0019
:10112000E12FE07880912D01E81759F0E0932D012F
:10113000AEDF8EE980937A0083E083BF889582E0FA
:1011400083BF20E030E0A901E0E01FC08EE980937A
:101150007A0083E083BF889582E083BF6091780046
:1011600070917900260F371F411D511DE43061F445
:1011700080912F01803041F084E02030380720F446
:1011800017FD02C01068CACFEF5F80912C01E817ED
:10119000E8F2609130017091310117FF04C0609155
:1011A0002E0170912F0180E090E00E94C83A2FEF4D
:1011B00033E040E050E00E941A3BB901CA0120919F
:1011C0002C0130E040E050E00E941A3BC9011F9121
:1011D00008959B01281B390B50F0C9010895BC01EB
:1011E00080913001909131016817790718F4861BBE
:1011F000970B089580E090E0089581E090E00E94D0
:10120000CD3B2091340130913501280F391F2093B7
:1012100016013093170183E0283E380720F0C901FA
:10122000885E934002C080E090E062E370E00E943C
:10123000F33A683008F067E0ECEBFBE0E60FF11DF5
:10124000E60FF11D459155912591359162E3681B9B
:10125000421B530B649FC001659F900D112449965A
:1012600062E370E00E94F33A620F731F70937A0199
:101270006093790180E090E00E94C53B992787FD4B
:1012800090956091340170913501860F971F90936E
:101290002F0180932E01909375018093740108951E
:1012A0000F9221E08C32920710F48CE291E08C5284
:1012B000914069E170E00E94F33A99E16B3210F0DD
:1012C000982F6BE2981BECE2F0E0E60FF11DE60FC1
:1012D000F11D9F93CF010E94C53B482F3196CF014E
:1012E0000E94C53B582F3196CF010E94C53B282F45
:1012F0003196CF010E94C53B382F6F91421B530B93
:10130000649FC001659F900D11240C9669E170E007
:101310000E94F33A620F731FCB010F900895CF9391
:10132000DF9324E130E0B9010E94F33ADC01E6E505
:10133000FBE0E60FF71FE60FF71FC591D59145912A
:1013400055914C1B5D0B4A9FC0014B9F900D5A9FBE
:10135000900D1124B9010E94F33A6C0F7D1FCB014F
:10136000DF91CF910895AEE1B0E0E9EBF9E00C94A4
:10137000573B662EB82E860F898320911A0128309C
:1013800059F520917F013091800140918101509168
:10139000820157FD15C010918E0109C0CA01B90123
:1013A0002AE0312D412D512D0E941A3B1F5F173F1E
:1013B000ACF391F4243160E036074105510518F48F
:1013C0008FEF9FEF41C1173F39F480E028178DE779
:1013D00038074105410510F020E03DE72C8B3D8B9F
:1013E00026EDA22EE7EEFCE0E60DF11D8591806072
:1013F0008E87E7EEFCE0EB0DF11D859180608F8715
:10140000E4EEFCE0E60DF11D7590E4EEFCE0EB0D82
:10141000F11DC59090EC692AB92A81E0E82EF12CE3
:10142000012D112D8E831F82188619861A861B8620
:101430001C861D86188E198E1B8E1A8E0E941225F0
:1014400080E088B960927C0022DE3F8537B975B8AC
:1014500074B852E05A95F1F70000000014B815B8BE
:10146000DD243E8537B975B874B860927C00A895C4
:10147000A0927A0080917A0086FDFCCF20907800BF
:1014800030907900B0927C004C2DE2D02091780011
:1014900030917900288B398B3F8537B9C5B8C4B8EE
:1014A000A895B0927C00A0927A0080917A0086FD87
:1014B000FCCF609178007091790060927C00472D9C
:1014C000C7D0409178005091790014B8CB01820DBB
:1014D000931DE80EF91E011D111DEA82FB820C838B
:1014E0001D8388899989840F951F2E813F81688586
:1014F0007985280F391F611D711D2E833F836887F1
:10150000798722E32417150648F075B874B8C9DD49
:1015100014B815B8888D8395888F07C0483E73E04E
:10152000570718F08A8D83958A8F8889998928179B
:10153000190658F03E8537B9C5B8C4B8B2DD14B83D
:1015400015B8898D8395898F07C0883E73E097070A
:1015500018F08B8D83958B8FD3945D2D5F3F49F071
:101560005F3731F45C2D550FC50E572D550F750E95
:1015700078CF4090390150903A01440C551C9201AB
:10158000E4E0240D351DEA95E1F7290157016801D2
:101590006E807F808884998420911A012830C1F45C
:1015A0006C897D89812D912D6550704080409040DF
:1015B0009B01AC010E94C83A9B01AC0160E779E74E
:1015C00086E190E00E941A3B621A730A840A950A27
:1015D000A614B704C804D90428F46A187B088C0838
:1015E0009D0803C0662477244301B20180E090E0A7
:1015F0009301A4010E94C83A9501A6010E941A3BDA
:1016000087E290E07981870F911D0E94C53B682E8B
:10161000C90160E170E00E94F33A260F371FC9014B
:101620006816190618F4861991090EC08C5E9F4F32
:101630008615910538F48C899D89843981E1980754
:1016400008F06FD5812D912D6E96E2E10C94733BDD
:10165000109281001092800010926F0010928B0007
:1016600010928A0057E056BB5FEF5093850050936D
:10167000840055E050937B0056EB50937A0051E084
:101680005093810058E25A95F1F7000045B944B9EA
:1016900055E05A95F1F7000014B815B81092810082
:1016A00080917A0084FFFCCF80937A000895609344
:1016B0003C018093030186958093AD0170E083E047
:1016C000660F771F8A95E1F760930401089583E020
:1016D0008093AD0186E060E0EACF82E08093AD01C7
:1016E00084E060E0E4CF81E08093AD0182E060E0DF
:1016F000DECF1092AD0180E060E0D9CF80913C0157
:10170000809301018091AD01809302010895809141
:101710000201880F60910101CACF682F50E041E0BB
:1017200090E820E030E0842F862309F0592B440F05
:101730002F5F3F4F2830310511F09695F4CF852F5C
:101740000895682F80E053CBA5E0B0E0EAEAFBE023
:101750000C94573B6C01802EE02FF0E0CF01860FF8
:10176000911D813891050CF086C0842F90E08E0D7C
:10177000911D813491050CF07EC0B42EB694B694C0
:10178000B6940197A3E095958795AA95E1F7482F20
:1017900030E072E0672E712C6222732221FF0DC0AF
:1017A00090E08B199109DC01AE9FC001AF9F900DB5
:1017B000BE9F900D1124C80ED91E942EB7E0B41709
:1017C00010F457E0952EA62EA2944FE0A422E0E15B
:1017D000AE2A6F706983E82CFF24C70101979B83B1
:1017E0008A8391E0292E312C22223322442455244D
:1017F0004E185F0837C06B2D606B80E0F8DA80E030
:101800006A2DF5DA80E06981F2DA0A811B810C0D1C
:101810001D1D1D821C821AC02114310419F0F8010B
:10182000649105C0EC81FD81EC0DFD1D6491611496
:10183000710419F0862F71DF682F81E0D8DA8C816E
:101840009D8101969D838C83015010409C81981549
:1018500018F36114710419F0C40CD51C02C0CE0C2D
:10186000DF1CB3949B1408F0C6CF609103016F7026
:10187000606B80E0BCDA2596E2E10C94733BEF925A
:101880000F93FC0104913196E490CF0101965CDF47
:101890000F91EF900895EF920F93982F80913C0154
:1018A0008F5F80933C01409103019C30D0F4892FDD
:1018B00090E0F4E0880F991FFA95E1F750E0E3E03B
:1018C000440F551FEA95E1F78A569E4F6091040137
:1018D00020E008E070E1E72E37DF80910401885FA7
:1018E00028C08EE0989FC001112450E063E0440FAF
:1018F000551F6A95E1F782569F4F6091040120E0E1
:1019000007E030E1E32E20DF60910401695F60931E
:1019100004014091030150E0B3E0440F551FBA9514
:10192000E1F78EE592E020E001E00EDF8091040116
:101930008F5F80930401A8950F91EF900895CF9346
:10194000DF93EC0102C0A7DF219688818823D9F7B5
:10195000DF91CF9108958F5C9ECFEF920F93FC01A2
:10196000262F649131964491319604913196E490FA
:1019700080910501680F80910001480FCF01019609
:10198000E3DE0F91EF90089560E0E7CFEF920F93C1
:10199000982F88E08093050196FD03C088E480932A
:1019A00005011092000197FD08C080E280930001BC
:1019B000809105018D5E80930501892F90E08F73E2
:1019C000907020E630E0AC01429FC001439F900D33
:1019D000529F900D11248A54974F609105014091B8
:1019E000000120E008E1A0E2EA2EAEDE0F91EF90C8
:1019F00008950F931F9300E080E060E1F8D980E044
:101A000060E0F5D9602F6F70606B80E0F0D910E076
:101A100081E060E0ECD91F5F1438D1F70F5F083028
:101A200059F767DE1F910F91089580E06EEADFD9C4
:101A300080E065EADCC9CF93DF93EC01CE010E9420
:101A4000C53B882319F027DF2196F8CFDF91CF918E
:101A500008950F9383ED91E0EEDF40918D014D3FAE
:101A600064F460917B0170917C0180917D01909183
:101A70007E0126E403E08DD002C08FE30CDF0F91DE
:101A8000089558985A985B985D98509A529A539A2C
:101A9000559A02DB5D9A559A5998519A84E104DB74
:101AA000589A84E101DB80E06EEAA1D980E062EE21
:101AB0009ED980E062EA9BD980E060EA98D980E014
:101AC00060EC95D980E06FE292D980E064E28FD932
:101AD00080E061E88CD98BE290E00E94C53B682FE2
:101AE0006F7380E084D980E060E481D980E064EAAB
:101AF0007ED980E066EA7BD97CDF80E06FEA77D927
:101B000080E060E0D4CD1F93182F02C0C1D91150DE
:101B10001116E4F31F91089590913C0180E1891B17
:101B2000F2CFE1DDF9DFDFCDE4DDF6DFE2CD1F93BB
:101B3000182FF2DF8091AD018F5F8093AD0184306B
:101B400038F083E08093AD0181E080933F0102C0D3
:101B500010923F018091AD01880F612FA8DD1F9188
:101B60000895E5DF19C2982F809119018F70823096
:101B700079F4892FF6DF80EF92E05DDFE0913D019F
:101B8000F0913E01848195816FEF4DE122E008C123
:101B90000895AEE0B0E0EFECFDE00C94593B142F5B
:101BA000422E602E9B01AC0169017A017FE0772E05
:101BB000702280E389838A838B838C838D838E83D9
:101BC000F7FE0AC067D9F094E094D094C094C11C89
:101BD000D11CE11CF11C04C005FF02C08BE25BDEDE
:101BE00083E0781609F4BCC094E0791639F460E11A
:101BF000862E67E2962EA12CB12C3CC0A5E07A1669
:101C000041F450EA852E56E8952E51E0A52EB12CD0
:101C100031C0B6E07B1641F440E4842E42E4942EB9
:101C20004FE0A42EB12C26C087E0781641F430E8AE
:101C3000832E36E9932E38E9A32EB12C1BC024E65F
:101C4000822E912CA12CB12C15C085E090E0A0E053
:101C5000B0E0C80ED91EEA1EFB1EC701B6012AE07D
:101C600030E040E050E00E941A3BC901DA016C010B
:101C70007D011F5FC814D904EA04FB0430F7812FEB
:101C80008F5E63E00E94E73AA82E86E0811B0E94E7
:101C9000E73AB92E8E01095F1F4FC701B601A801AF
:101CA0002AE030E00E948E3BF80101900020E9F725
:101CB00031971E2F101BC12EDD248B2D90E0049632
:101CC0008C159D051CF4A39493E0B90E8A2D90E029
:101CD0008B5D9C4F0E94C53B582E64FE05C01715B6
:101CE00018F4872D811B01C080E0F12EFB18F80E3F
:101CF0001F1424F08EE2CFDD8B2D811BBB2011F44D
:101D000098EFF92EEE2490E05C01AC0CBD1C06E0CF
:101D100010E0081B190B4E010894811C911CCF2C5C
:101D2000DD24C7FCD0940EC0E80DF91DE00FF11FB3
:101D30008081B1DDE3948E2D90E08C159D0511F42A
:101D40008EE2A9DDEE2DF0E0EA15FB056CF35520DF
:101D500011F0852DA0DD442051F0842D9CDD07C0BD
:101D600088EE882E83E0982EA12CB12C83CF2E965E
:101D7000E0E10C94753B0F93042F40E028E409DF69
:101D80008AE789DD85D80F9108950F93062FA0E08B
:101D9000B0E0BC01CD014DEF26E5FBDE0F910895CB
:101DA0000F93362F542F022FA0E0B0E0BC01CD01DD
:101DB000432F252FEEDE0F910895262F342FE82F85
:101DC000F0E0EE0FFF1FE057FE4F85919491609178
:101DD0000501620F40910001430F20E050CD0F93A9
:101DE0001F93182F062FE0913D01F0913E0186854B
:101DF0006EE148E1E2DFE0913D01F0913E01848532
:101E0000612F402FDADFE0913D01F0913E018585A1
:101E10006EE140E0D2DF1F910F91089589B190E00B
:101E200023E0969587952A95E1F7282F2170499907
:101E3000226080911101843050F08EE080930D017A
:101E400020930E011092120181E080931101909174
:101E50001101E92FF0E0E35FFE4FE081E21741F16D
:101E60002223E9F49D5F892F83709350E23039F586
:101E7000E82FF0E0E35FFE4F8081833081F48091B2
:101E800012018F5F0AC0E82FF0E0E35FFE4F808110
:101E9000833029F480911201815080931201E92F3F
:101EA000EF5FE370E0931101F0E0E35FFE4F20830A
:101EB0008091120187FD8195809313010895E1308F
:101EC00071F7E1CFA0E0B0E0E8E6FFE00C94603B02
:101ED0006C0153985198D6D810921201E0911101DB
:101EE000F0E03196E370F070E35FFE4F80EF8083A7
:101EF00004E611C093DF4F9906C0C8D81F5F19319F
:101F0000C9F7015040F4E60100E045E5E42EFF2466
:101F1000BB24B39439C010E0EDCF10E07FDFB6D81A
:101F20001F5F1233D9F78E2D880F4F9B8F5F3FE3D2
:101F3000E32EE8228FE3E81641F4002311F4E601D2
:101F400004E00F5F083C28F021C0EE2011F40023CC
:101F5000E9F4A8951C161D0624F42A9711F4CFEF76
:101F6000DFEF80911301882339F0F394809177019A
:101F7000882311F4B092770184E18F1528F48091C1
:101F80001201882319F4FF24D7FFC7CF802FCDB7C4
:101F9000DEB7E9E00C947C3B1F93B0DB182F8091F7
:101FA0003F01882301F1813051F4133041F486E080
:101FB0006FE07DDB8BE26FDC86E06FE078DB80E456
:101FC0009FE180DF882321F4809113018823B9F7F2
:101FD000133041F480913F01813021F486E060E0CC
:101FE00066DB9ADD94DB1F91089518951895CF93C1
:101FF000DF9330911801C0913D01D0913E01A1E9DC
:10200000B1E0E0E0F0E015C09C858C91891779F093
:1020100016968C911697891751F0EE0FFF1FE35615
:10202000FE4F80819181895E934030F406C03196E5
:1020300011962E2FE31740F324E1822FDF91CF91E9
:10204000089510921A011092180110926F011092C7
:102050004F011092190110923B01109276011092DB
:102060005A0110925B0110925C0110928B0182E088
:1020700080938C011092200110928A0110928901A4
:1020800010927F01109280011092810110928201C2
:1020900081EF80938E010895EF92FF920F931F932B
:1020A000CF93DF93E62EE82FF0E0E951F34FE49170
:1020B000E8B9E7B915B8E62FF0E0EC51F34FE49139
:1020C000E4B908E813E1FE2EFF0C8E2D19D8EC01BF
:1020D000F4B88017910710F48C01F7CF0097E1F066
:1020E000F6DA88E292E0A7DCBE0180E090E020EA28
:1020F00036E841E050E00E94C83A28E937EB40E07A
:1021000050E00E941A3BDA01C90167EF41E422E086
:1021100047DE17B818B814B8CDB7DEB7E6E00C94B0
:102120007F3B80913801882369F483E090E00E942E
:10213000C53B682F6F5F86E090E00E94D23B81E054
:102140008093380108951F93CF93DF93162F17B80C
:1021500018B8E82FF0E0EC51F34F949195B9262F81
:10216000281B332727FD3095E20FF31FE491E92B5D
:10217000E4B90E948B08EC01812F0E948B08BC01FE
:10218000209130013091310136952795A9014350B6
:102190005040CE014E964817590780F4255E3F4FB8
:1021A000C217D30758F4CB014E964817590730F49D
:1021B00080E06217730718F481E001C080E014B872
:1021C000DF91CF911F9108950F931F9380E061E0FD
:1021D000BADF082F80E062E0B6DF182F81E062E00E
:1021E000B2DF100F810F1F910F910895AEE0B0E0A4
:1021F000ECEFF0E10C94573B10921A01C82EDD244D
:10220000807F89F4E1DF833009F0C5C3F2DB87EE1C
:1022100090E011DC68DA8FE33EDB80ED97E052DE80
:102220008B30D8F415C010E000E0E3DB8CE891E0DF
:1022300002DCCADF833011F010E003C01F5F1430EE
:1022400060F488E20E9454080F5F063971F769C094
:10225000D0DB84E592E0EFDB9EC345DA0E94FA28EA
:1022600084EA92E0E8DB89E290E060E00E94D23B01
:102270008AE290E060E00E94D23B88E290E060E079
:102280000E94D23B82E060E06ED89A83898382E02C
:1022900061E069D89C838B8381E060E064D88C0125
:1022A0009E838D83E980FA80C7016EEF40E223E0D0
:1022B00077DD8B819C816EEF40E223E071DDC80108
:1022C0006EEF4DE123E06CDD2AE5E216F10424F027
:1022D00084E190E09A83898389E290E069810E9499
:1022E000D23B8B819C818A35910524F084E190E07A
:1022F0009C838B838AE290E06B810E94D23B8D812C
:102300009E818A35910524F084E190E09E838D833F
:1023100088E290E06D810E94D23B82E080933F0191
:102320003BDE9FE0892E912C8C209D2081E0881639
:10233000910409F054C181E0A82EB12C02E0602E76
:1023400018E0712EB0E25B2E41C1EBDBEDDB84E5E2
:10235000A2DAC5010E943E070E94480791E0D91603
:10236000B1F480E792E067DB809134019091350110
:1023700064E00BDDB8D985E792E05DDB80917901FF
:1023800090917A010E943E0730922C0104C1E2E054
:10239000DE16A9F5609130017091310180E090E086
:1023A00028E53BE140E050E00E94C83A24EC36E3E7
:1023B00040E050E00E943C3B79018A0181E085B910
:1023C000F5E0F4B980E00E9480088E199F099A8395
:1023D000898321E124B980E00E9480088E199F0939
:1023E0009C838B8384E085B944B881E00E94800897
:1023F0008E199F099E838D8382E892E0BAC093E094
:10240000D91669F565B8EAE0E4B980E00E94800871
:1024100020913001309131013695279538872F83EF
:10242000821B930B9A838983F2E2F4B980E00E94C5
:1024300080089C018F819885281B390B3C832B8356
:1024400075B824B881E00E9480089C018F8198852E
:10245000281B390B3E832D8380E992E08AC024E05B
:10246000D21651F486EF90E0E6DAAEDE882309F466
:1024700081C0F2E0CF2E7EC085E0D816B1F415B849
:1024800064B880E00E9480089A83898374B881E0F0
:102490000E9480089C838B8354B882E00E9480084D
:1024A0009E838D838AE792E064C096E0D91651F549
:1024B00064B865B880E00E948008209130013091B6
:1024C0003101821B930B9A83898374B875B881E0BC
:1024D0000E9480082091300130913101821B930BC2
:1024E0009C838B8354B855B882E00E948008209169
:1024F000300130913101821B930B9E838D838EE7D7
:1025000092E037C0E7E0DE16A9F5609130017091E6
:10251000310180E090E028E53BE140E050E00E949E
:10252000C83A28EB32ED47E450E00E941A3B7901AB
:102530008A0165B8F3E0F4B980E00E9480088E1942
:102540009F099A83898375B82CE024B981E00E94A1
:1025500080088E199F099C838B8355B880E384B9CA
:1025600082E00E9480088E199F099E838D838EE9E8
:1025700092E061DAB8D889819A810E9433070E947B
:1025800048078B819C810E9433070E9448078D81F8
:102590009E810E94330717B818B814B815B888EE92
:1025A00093E090DC94E0D91611F08B3028F4C394BA
:1025B000E3E0EC1508F0C9CE88EE93E083DC0894E4
:1025C000A11CB11CF8E0AF16B10449F0CC24DA2C00
:1025D000E8E22E2E74E1472E6EEB362EB6CE10E0DA
:1025E000F3DD882351F09DDA86EF90E024DA84E66B
:1025F0000E9454081F5F183799F7FBD988EA92E0C8
:102600001ADA80913201909133016FEF4DE123E0AE
:10261000C7DB69D88FEA92E00EDA80913901909198
:102620003A016FEF4DE123E0BBDB82E080933F0195
:10263000B3DC10921A01DDD986EB92E0FCD982E07E
:1026400060E00E941A2680918301909184019C870A
:102650008B8782E061E00E941A268091830190912D
:1026600084019E878D8781E060E00E941A26809118
:102670008301909184019E838D8380E062E00E94BB
:102680001A2680918301909184019C838B8381E041
:1026900062E00E941A2680918301909184019A87BA
:1026A000898780E061E00E941A26E0908301F09023
:1026B0008401FA82E9828B859C850E9447078D857B
:1026C0009E850E9447076D817E81882777FD8095D2
:1026D000982F44EF26E403E05CDA21E082169104AF
:1026E00021F080913801823079F482E090E0E80EA8
:1026F000F91EF886EF826E010894C11CD11C760188
:102700009E01215F3F4F05C0F886EF82109238018D
:10271000F2CFF701808191810A97853B9105E8F41A
:1027200082E090E0E80EF91EE216F30691F703E06E
:1027300010E0F60160816E5EC8010E94D23B82E02B
:1027400090E0C80ED91E0F5F1F4FCE14DF0489F72B
:102750000E94730B8FEA91E06ED982E080933F0173
:102760001BDC0E947C3791E08916910429F080914E
:102770003801823009F0FAC03CD980E0ECD888E01A
:1027800092E059D982E0E7D88DE293E054D9FF2452
:10279000EE245BE7C52E51E0D52E53DC10921A01D2
:1027A00082E060E00E941A2660917B0170917C01BA
:1027B00080917D0190917E0110918D010BC02AE0E6
:1027C00030E040E050E00E941A3BC901DA01BC0150
:1027D000CD011F5F173F9CF360937B01F60171836E
:1027E0008283938310938D01173F09F0A6C0603652
:1027F00071058105910508F4A0C0605F75458040B2
:10280000904008F09AC060918F01709190012FEF75
:102810006B3672070CF491C0663971050CF08DC0EF
:10282000F39484E08F1508F089C081E090E00E9465
:10283000E03BDFD885E393E0FED880918F01909153
:1028400090010E9433070E94FD0818B881E087B903
:1028500080E284B982E00E948B08855D9340D4F7C2
:1028600014B810922F0110922E0182E00E948B0862
:102870009A838983809174019091750190932F01BF
:1028800080932E0182E00E948B089C01220F331F4F
:102890003C832B8310922F0110922E0182E00E9424
:1028A0008B089E838D832091740130917501309344
:1028B0002F0120932E01EB80FC8069817A816E19B3
:1028C0007F09680F791F882777FD8095982F40E052
:1028D00050E00E94C83A0027F7FC0095102FA8018D
:1028E00097010E943C3B022F0E94730B8CE393E004
:1028F000A2D880E090E00E94C53B182F1D5F100F0A
:1029000080E090E0612F0E94D23B812F992787FDC4
:1029100090950E9433070E94FD0882E080933F015A
:102920003BDB1092380183E090E00E94C53B682FAA
:1029300086E090E00E94D23B19C0FF240E94730BF6
:1029400060917B0170917C0180917D0190917E016D
:1029500040918D0126E404E01CD9DED888E20E9473
:102960005408E394F0E4EF1609F017CF89E180935F
:102970002C0180E00E94DF373CD884E592E05BD8F0
:102980000E94730B86E091E056D810921A0182E003
:1029900080933F0101DB2E96E2E10C94733B45D816
:1029A0005E980E94310880E090E08CCAA0E0B0E020
:1029B000ECEDF4E10C945B3B80E48AB98BB95F9A4F
:1029C00016E810937A001092C1000E94330804B7F1
:1029D00084B7877F84BF88E10FB6F8948093600046
:1029E000109260000FBE1093640088E380937E0015
:1029F0001092B00087E08093B100789442D803FF32
:102A000010C00E94790B8EED90E015D88BEC0E94DF
:102A10005408C5DF80E090E0CDB7DEB7EEE00C945F
:102A2000773B84E08093110110E04F9905C00E942C
:102A300053081F5F1C33C9F78FE59DE690930C0187
:102A400080930B011F3130F080E69DE690930C01DE
:102A500080930B0110922D010E94FA282FE088E14B
:102A600090E00FB6F894A895809360000FBE209375
:102A700060001C3320F00E94CE328823E1F740E151
:102A8000742E30E1632E20E4822E21E0922E90E617
:102A9000A92E91E0B92E8FEA0E94A10B84EA0E9430
:102AA000A10B0E94F90C17B8CCDA0E94FA280E94F8
:102AB000790B57D580913B01882379F00E94730BE5
:102AC00082E192E00E941B0D8091300190913101D2
:102AD00063E05BD988EC0E9454080E94730B0E944B
:102AE000122580911A01893021F50E94F90C8CE0A1
:102AF00092E00E941B0D0E94730B809154019091F3
:102B0000550163E042D90E94480780915601909197
:102B1000570163E03AD90E9448078091580190918B
:102B2000590163E032D98AEC0E94540881E15EDBEE
:102B30007DC486E090E00E94C53B182F83E090E0C2
:102B40000E94C53B181B1093380180E04FDB0E94A8
:102B5000910D86E890E00E941B0D80E061E042E06C
:102B60006FD581E060E042E06BD580E062E041E05B
:102B700067D582E060E041E063D581E062E040E05B
:102B80005FD582E061E040E05BD580911A01882347
:102B900071F40E94122582E060E00E941A2682E011
:102BA00061E00E941A2681E060E00E941A260E94DD
:102BB000F90C90923E0180923D0180911A0186307D
:102BC00069F485EC0E94C60C88EF60E108D980E0CA
:102BD00066E00E94570B8AEB90E00EC08730E9F464
:102BE00084EC0E94C60C88EF60E1F9D880E066E0D2
:102BF0000E94570B84EB90E00E941B0D82E066E080
:102C00000E94570B8AEF91E00E941B0D80914401B6
:102C10009091450162E0B9D809C4883081F42091CF
:102C20008C0180918B0190E0820F911D029719F425
:102C30000E94722A15C480E00E94FD29F7C38330E8
:102C400009F0C1C080911801813059F580E00E94DF
:102C5000060880919701609191011EDA80E70E9439
:102C6000DF07809197016091910140E00E947636E4
:102C700060937B0170937C0180937D0190937E0132
:102C800080E00E94B10D60917B0170917C01809188
:102C90007D0190917E0142EF26E402E00E94C90D81
:102CA0004FC4823071F582E30E944B0C85E492E0C0
:102CB0000E941B0D3091910120919201321739F43D
:102CC00080E00E94200881E00E9418080CC08091DA
:102CD000970190919801891741F480E00E941208B1
:102CE00081E00E94260881E0BACF821721F481E0BA
:102CF000809306014CC0931709F04CC06092060106
:102D000046C0833009F046C083E38093060190916A
:102D1000970180919201981719F481E08093060140
:102D20009091910180919801981711F46092060199
:102D30009091970180919301981719F482E0809304
:102D400006019091910180919901981719F480E200
:102D5000809306019091980180919301981719F43E
:102D600082E18093060190919201809199019817D8
:102D700019F481E28093060180910601823250F4B9
:102D800083E30E944B0C85E492E00E941B0D0E949D
:102D9000F507D6C38BEA90E00E941B0D8EEB90E006
:102DA0000E941B0D0E94730B80911801805D0E9490
:102DB0004B0C8AE20E944B0C8CE292E00E941B0DAD
:102DC00086ED90E02BC3843009F05AC180916F01E9
:102DD000882309F467C080914F01882309F462C0F9
:102DE00080914E0160914C010E941A26C0907B0197
:102DF000D0907C01E0907D01F0907E0110918D01DA
:102E000080916C0160916E010E941A262091400110
:102E1000309141014091420150914301243F61E0D2
:102E2000360760E0460760E0560770F48091600165
:102E300090916101A0916201B0916301845F914022
:102E4000A040B04008F010EF8091600190916101C6
:102E5000A0916201B0916301845F9140A040B040B5
:102E600040F4245F31404040504018F080EF8093A0
:102E70008D0180918D01181771F480917B019091E3
:102E80007C01A0917D01B0917E01C816D906EA06A9
:102E9000FB0618F004C0181714F48DE001C08CE094
:102EA0008093190180916F01882361F080914F0117
:102EB000882341F04F9906C08091190191E089273C
:102EC0008093190180E066E00E94570B80EC0E941D
:102ED000C60C809119018C3051F48AED91E00E946A
:102EE0001B0D80916F018823A9F080E711C0B0927B
:102EF0003E01A0923D018BE59DE00E94C40C82EE54
:102F000091E00E941B0D80914F01882319F08EE6FD
:102F10000E944B0C6CD8182F8530A0F4A0913D0175
:102F2000B0913E01E82FF0E0EF56FE4F1D969C91C8
:102F30008081981711F062E001C060E08FE79DE0AA
:102F40000E94AD0C89EF60E10E94EF0E86E00E94C6
:102F5000970D8EEC91E00E941B0DE0913D01F091E8
:102F60003E0160817181828193814EEF20E003E018
:102F70000E94C90D87E00E94970D89E40E944B0CC6
:102F8000E0913D01F0913E01868197818051974209
:102F900070F085E60E944B0CE0913D01F0913E01FE
:102FA00086819781805197429783868303C083E609
:102FB0000E944B0C0E944C07E0913D01F0913E01B4
:102FC000868197816AEF41E422E00E94D00E86E07C
:102FD0000E94970D85EF91E00E941B0DE0913D014D
:102FE000F0913E018481958163E00E94C50E81E0ED
:102FF00080933F01E0913D01F0913E0180859185F4
:10300000892B91F085E00E94B10D84E692E00E9448
:103010001B0DE0913D01F0913E01808591856AEFA5
:1030200041E422E00E94D00EE0913D01F0913E018A
:1030300082859385892B91F085E00E94B10D8AE607
:1030400092E00E941B0DE0913D01F0913E018285CE
:1030500093856AEF41E422E00E94D00E153068F4B7
:1030600080E00E94B10D812F0E9406088AEF91E056
:103070000E941B0D812F0E94D10785E462E42BC1C1
:10308000853009F02EC180E066E00E94570B8091E8
:10309000190184FF09C080E50E944B0CB0923E01EB
:1030A000A0923D0112E004C08EE40E944B0C10E09F
:1030B0000E944A0780911901082F0F70043061F4B3
:1030C00083EC91E00E941B0D83EC0E94C60C11233F
:1030D000E1F184E59DE037C085FF05C084E40E94EE
:1030E0004B0C1F5F03C085E40E944B0C0330B1F40E
:1030F00088EC91E00E941B0D81EC0E94C60C1130FF
:1031000019F482E09DE01FC0123019F48AEE9CE0B1
:103110001AC01330D1F48EE09DE015C08EEB91E023
:103120000E941B0D82EC0E94C60C113019F48CE336
:103130009DE009C0123019F482E39DE004C0133011
:1031400021F482E49DE00E94C40C0E94F70F8530B8
:10315000A0F4A0913D01B0913E01E82FF0E0EF56C0
:10316000FE4F1D969C918081981711F062E001C07E
:1031700060E08FE79DE00E94AD0C89EF60E10E9466
:10318000EF0E86E00E94970D8091190190E085FD79
:103190001CC08FEF91E00E941B0DE0913D01F0916A
:1031A0003E018285938562E00E94C50EE0913D015B
:1031B000F0913E01848566850E941A2686E00E9471
:1031C000970D0E94290D85E069C08F709070E09185
:1031D0003D01F0913E01049739F0848566850E9497
:1031E0001A260E94290D13C084819581892B79F0BC
:1031F00083E593E00E941B0DE0913D01F0913E01BB
:10320000848195816AEF41E422E00E94D00E84E03F
:1032100060E00E94570B89E40E944B0C0E944C070F
:10322000E0913D01F0913E01868197816AEF41E492
:1032300022E00E94D00E83E092E00E941B0DE091FC
:103240003D01F0913E018285938562E00E94C50EAA
:10325000E0913D01F0913E0180859185805C924135
:10326000E0F480E00E94B10D89E40E944B0C0E94C2
:103270004C0780E090E06BEF41E422E00E94D00E2A
:1032800083E092E00E941B0DE0913D01F0913E0130
:103290008085918562E00E94C50E80E00E94B30D9A
:1032A000043009F458C110E00EC080E00E94B10D56
:1032B000812F0E9406088AEF91E00E941B0D812F4A
:1032C0000E94D1071F5F80911801181770F3033017
:1032D00021F485E467E443E441C183E567E444E421
:1032E0003DC100917601002309F48AC00130B1F498
:1032F00080915D010E94A207282F692F80915D01B6
:10330000813039F480911801882319F40E94AB2B85
:10331000A7C0822F40E00E94F82A88C070915D010A
:1033200060915E01A62FB0E0AA0FBB1FAA0FBB1FC2
:10333000A255BE4FE72FF0E0EE0FFF1FEE0FFF1F6D
:10334000E255FE4F2D913D914D915C91808191818F
:10335000A281B38182179307A407B50710F4162F33
:1033600001C0172F023029F4172F1195161B1D5F6E
:1033700020C060915F01A62FB0E0AA0FBB1FAA0F6B
:10338000BB1FA255BE4FE12FF0E0EE0FFF1FEE0F67
:10339000FF1FE255FE4F2D913D914D915C91808133
:1033A0009181A281B38182179307A407B50708F41E
:1033B000162FF12EF694112311F401E001C002E062
:1033C0008F2D0E94AB0C8AE492E00E941B0D82E0DC
:1033D000811B0E94AB0C8AE492E00E941B0D802F9F
:1033E0000E94AB0C80E00E94970D80E0112309F44D
:1033F00081E00E94AC0782E08F190E94AC0716C0E2
:1034000086EC90E00E941B0D0E94730B8BEA90E00B
:103410000E941B0D0E94480783EA90E00E941B0D4A
:1034200086E00E94C60CC0E4DFE104C0C0910B013D
:10343000D0910C0177B84F9BFECFCE010E94620F56
:10344000823320F490911301933028F00E94CE3201
:103450008823E1F720CB882309F01DCB992369F756
:1034600080913801882309F469C0C0E0D0E080E28F
:1034700054E0D52E4EC00491003211F00E3F09F4F5
:10348000C82E8F5F31968131B1F7DD2059F480E28B
:103490009EE40E94620F882309F048C080911201C7
:1034A00087FD32C01D2D137011F40E94F90C812F7D
:1034B000880F60E00E94570BA895D39423E0D22296
:1034C000802F00E013C0F7011491112379F11F3F01
:1034D00019F40E94480705C01E3F19F0812F0E9471
:1034E0004B0C0F5F0894E11CF11C812F0C1558F355
:1034F0008823E1F0CC0DD11DFE01E253F44FE4919D
:10350000E03239F4219605C0C0E0D0E044E0D42E8A
:1035100002C0882359F03EECE32E3BE0F32EEC0E84
:10352000FD1EF70180E020E1C22EA5CF80E29EE4DF
:103530000E94620F8091120187FDE6CF30DAABCA9C
:1035400080917601882309F471CF77B817B880E0AD
:103550000E94B10DC6CE8FE367E44FE30E9475076A
:1035600065CF0F931F93CF93DF9385E00E948B0865
:1035700085E00E9487088C01EC01CC0FDD1FCC0F89
:10358000DD1FCA56DF4F1092360183E0C438D807DA
:1035900050F482EB91E00E941B0D0E948C0D81E0A3
:1035A0008093360125C089EA91E00E941B0DCE016F
:1035B00062E00E94C50E0E94480786E00A3F180795
:1035C00088F40353164058F489E990E00E941B0DDB
:1035D0000E948C0D8DEC0E945408E1D909C081E94C
:1035E00090E002C08FEA91E00E941B0D0E948C0DBA
:1035F000DF91CF911F910F910895DC019C01261B53
:10360000370B60E070E0F62FF20FCA01870F911DB3
:10361000E92F740F9B3E80F4C901860F911D290F7D
:10362000311D8E2F90E0880F991F480F591FA21748
:10363000B30720F06F2FE7CF40E050E0CA010895B4
:10364000AFE1B0E0E6E2FBE10C94573B8B8F6C8F6F
:103650004D8FA895E62FF0E0EC51F34F3491398B64
:10366000330F3C8B33964491488B5D8DE52FF0E012
:10367000EC51F34F84918F873396B4909B8DE92F53
:10368000F0E0EC51F34FA491AE87AA0FAA8B3396CA
:10369000B491BD8785B9E9898E2B8A8F84B9B7B972
:1036A000B8B98C8D0E9487089E838D83F989F4B9FF
:1036B0008C8D0E9487082C0114B80E943C0815B814
:1036C0002A8D24B98C8D0E9487086D817E810E948D
:1036D000E9087C01388937B918B84E855F85452BD4
:1036E000498F45B944B98B8D0E9487080E94EF0825
:1036F0008C0115B80E943C088E8585B98B8D0E947F
:1037000087080E94EF084C019E8594B98B8D0E941A
:1037100087080E94EF08D82EC92EC801B4010E9464
:10372000E908A1E080329A0730F4B0E2EB16B1E08C
:10373000FB0608F40DC6E80CF91CED81FE818E0F26
:103740009F1FE816F90630F48D2D9C2D9C01290150
:103750009E828D8230914F0120916F01832F90E0E6
:10376000820F911D029754F0313009F0F1C590910C
:103770004C0180916C01981709F0EAC5FF85FF0F95
:10378000FB8B2D813E812437310508F4B5C1C90179
:10379000880F991F44964816590608F0ADC13D851B
:1037A00037B938B98F2F4989842B84B98C8D0E9401
:1037B00084087C018D8D0E948B088C015B8955B932
:1037C0008C8D0E9484089701295A3D4F4B89AE8504
:1037D0004A2B2817390708F0BCC018B8B889B7B900
:1037E00044B945B98D8D0E94840888549F4028F0C3
:1037F00085E080931A0182E204C085E080931A017B
:1038000084E280931901F0924501E0924401C701DE
:10381000B8010E94F40890934B0180934A01B701CC
:1038200080E090E020E137E240E050E00E94C83ABA
:10383000209114013091150140E050E00E941A3BA4
:103840003093470120934601FB892C89F22BF4B970
:1038500015B83D8537B938B98C8D0E9484088C0124
:103860008D8D0E948B08BC01C8010E94F4089C0148
:103870009093490180934801809119018F708430A1
:1038800099F560914A0170914B0140914601509128
:103890004701C901B2DE009719F14B8944B95D8532
:1038A0008889582B57B98C8D0E9484088C0117B8D1
:1038B000BC0180E090E020E137E240E050E00E946F
:1038C000C83A2091390130913A0140E050E00E941D
:1038D0001A3B8091480190914901B801A9018DDE00
:1038E0009093450180934401809119018F70843039
:1038F00009F426C518B89889B92AB7B8AE85A4B90D
:10390000B98DB5B98B8D0E9487084C010E94EF08D4
:103910005C018C8D0E948B08BC01E0901B01F09033
:103920001C0100E010E0C4010E94F408A0E0B0E037
:10393000BC01CD01A80197010E94C83ACC24DD2426
:10394000A60195010E941A3B309345012093440142
:10395000F7C418B8E889E7B944B945B98B8D0E9416
:1039600084087C018D8D0E948B088C01FE85F5B941
:103970008B8D0E948408895A9D4F8E159F0508F0F3
:10398000E7C42D8528B927B98D8D0E948408815DF3
:10399000934028F485E080931A0182E304C085E017
:1039A00080931A0184E380931901C801B7010E9432
:1039B000F40890936B0180936A01C7010E94EF089D
:1039C000A0E0B0E0BC01CD0120E137E240E050E0F2
:1039D0000E94C83A20911B0130911C0140E050E048
:1039E0000E941A3B309367012093660118B84889FA
:1039F00047B98A895B89852B84B985B98D8D0E94E9
:103A000084088C018B8D0E948B08BC01C8010E9428
:103A1000F4089C01909369018093680180911901D9
:103A20008F708430B9F560916A0170916B0140919B
:103A3000660150916701C901E0DD009739F18B897A
:103A400085B984B99D8598B9A8899A2B97B98B8D2A
:103A50000E9484080E94EF088C0117B8BC0180E026
:103A600090E020E137E240E050E00E94C83A209127
:103A700032013091330140E050E00E941A3B8091C6
:103A8000680190916901B801A901B7DD90936501C2
:103A900080936401809119018F70843009F4F7C11B
:103AA0008D858B2988B987B915B8B98DB4B98B8D37
:103AB0000E9487084C018C8D0E948B085C01E0906D
:103AC0001401F090150100E010E0C401B5010E945E
:103AD000F408A0E0B0E0BC01CD01A80197010E946C
:103AE000C83ACC24DD24A60195010E941A3B3093EC
:103AF000650120936401CBC118B8E889E7B9FE8558
:103B0000F5B92B892F2B2C8324B98B8D0E94870824
:103B100098878F830E94EF089C878B878D8D0E94EA
:103B20008B081C01A2014C595F4F588F4F8B8B851E
:103B30009C8548175907A8F4B2010E94F4087C013B
:103B400000E010E020911B0130911C0140E050E0AA
:103B500060E871EA83E09CE10E941A3BC801B7016A
:103B600021C08B859C85B2010E94F4088C01998D3F
:103B700094B98B8D0E94870898878F830E94EF08E5
:103B80009C878B878D8D0E948B081C01C801B10119
:103B90000E94F408A0E0B0E0BC01CD0124E630E0D2
:103BA00040E050E00E94C83A910140E050E00E949D
:103BB0001A3BC901DA015C016D0114B815B8AD8575
:103BC000A8B9A7B981E00E945408BA8DB4B98C8D08
:103BD0000E9487088F559D4008F45FC1FB892989A1
:103BE000F22BFB83F4B98C8D0E9484089F8F8E8FFB
:103BF0008D8D0E948B084C018B8D0E948B083C019F
:103C000031ED831637E0930608F4CCC084E080934E
:103C10001A018DE0809319014E8D5F8D4416550673
:103C200010F07A0104C0EE8CFF8CE418F50800E077
:103C300010E0209114013091150140E050E060E85F
:103C400071EA83E09CE10E941A3BC801B7010E941F
:103C5000C83A940140E050E00E941A3B79018A0181
:103C600080916F01882379F08091600190916101CA
:103C7000A0916201B09163018E159F05A007B10765
:103C800010F020E028C0E0926001F0926101009302
:103C9000620110936301AE8DBF8DBD0180E090E0A5
:103CA00020E137E240E050E00E94C83A2091140140
:103CB0003091150140E050E00E941A3B30936701BB
:103CC00020936601C301B4010E94F408909365013A
:103CD0008093640121E08091600190916101A09145
:103CE0006201B09163018A159B05AC05BD0558F5CD
:103CF000A0926001B0926101C0926201D092630112
:103D00008F819885B1010E94F4089093650180939A
:103D10006401EB85FC85BF0180E090E020E137E2A3
:103D200040E050E00E94C83A20911B0130911C01F4
:103D300040E050E00E941A3B205F384D309367010D
:103D40002093660103C0222309F4E8C3B20180E096
:103D500090E020E137E240E050E00E94C83AE09075
:103D60001401F090150100E010E0A80197010E94F5
:103D70001A3B30936901209368012D813E81B9017E
:103D800080E090E020E137E240E050E00E94C83A55
:103D9000A80197010E941A3B30936B0120936A019E
:103DA00021E0BCC331E64316510408F076C04E8DC5
:103DB0005F8D87E0413D580708F46FC085E0809330
:103DC0001A0182E180931901CA0186509F4F86151E
:103DD000970520F483E1809319011EC0E09014013F
:103DE000F090150100E010E0C3016E8D7F8D0E9400
:103DF000F408A0E0B0E0BC01CD01A80197010E9449
:103E0000C83AAE8DBF8D9D0140E050E00E941A3B44
:103E10003093650120936401088907708D8D80645B
:103E200080937C0010E041E0C42ED12C3FEFE32EC4
:103E300033E0F32EA8958F8561E0DAD5BB81B4B964
:103E400086B18023E9F3E989E4B980917A0080643E
:103E500080937A0080917A0086FDFCCF8091780073
:103E6000909179009701281B390BC20ED31E1F5F5A
:103E70001B3001F7C601880F991F880F991F69E051
:103E800070E00E94F33A70936B0160936A01809135
:103E90006F018F5F80936F0183CF8B893989832B6B
:103EA00084B94B8945B98C8D0E9487089A87898788
:103EB0008D8D0E948B089A8389830E94EF086C0184
:103EC00089859A85AF89B88DA817B90700F5B20121
:103ED0000E94F4087C0100E010E020911401309170
:103EE000150140E050E060E871EA83E09CE10E9447
:103EF0001A3BC801B7010E94C83A960140E050E061
:103F00000E941A3BC901DA013C014D0130C0BA8D53
:103F1000B4B9EF85E5B98C8D0E9487087C018D8D41
:103F20000E948B089A8389830E94EF088C014E14AB
:103F30005F0410F0C70103C0C70184199509B801D7
:103F40000E94F408A0E0B0E0BC01CD0124E630E01E
:103F500040E050E00E94C83A980140E050E00E94E2
:103F60001A3BC901DA013C014D01FA86E986F8895C
:103F7000F7B918B8298D24B925B98B8D0E94870807
:103F80001C018D8D0E948B085C018C8D0E948B081A
:103F90006C0130E3231631E1330608F0D7C14E85BA
:103FA00045B98B8D0E9487087C015E8554B98B8D45
:103FB0000E9487088C0115B881E00E9454088E8504
:103FC00085B98B8D0E948708A6E000341A0708F097
:103FD0005DC08153914108F459C0C1018A569F4F79
:103FE000E816F90608F052C086E080931A01809125
:103FF0004F018F5F80934F01C501B6010E94F40805
:104000009093450180934401C101B6010E94F408D8
:1040100090934B0180934A0114B815B8E889E8B928
:1040200081E00E945408FE85F4B98B8D0E948708B8
:10403000853F910508F083C2298D24B98D8D0E949A
:104040008708815D934008F47AC28B8D0E948B08AB
:104050008D5D924008F473C25E8554B98B8D0E94C9
:1040600087088D5D924008F46AC2BE85B5B981E0CB
:104070000E94540815B88B8D0E948708853F9105D2
:1040800008F05DC287E080931A0159C2E889E7B958
:10409000FF85F4B9F5B981E00E9454082C8124B958
:1040A00025B98B8D0E9487089F8F8E8F0E94EF0805
:1040B0005C018D8D0E948B089E8B8D8B0E94EF087A
:1040C0001C018C8D0E948B086C013EEF231639E099
:1040D000330608F4C7C084E080931A018CE0809313
:1040E0001901C501B2010E94F4087C0100E010E052
:1040F00020911B0130911C0140E050E060E871EA22
:1041000083E09CE10E941A3BC801B7010E94C83AB3
:10411000910140E050E00E941A3B79018A018091B0
:104120004F01882379F08091400190914101A09145
:104130004201B09143018E159F05A007B10710F011
:1041400020E027C0E0924001F0924101009342013B
:10415000109343018D899E89B6010E94F4089093C3
:10416000450180934401B50180E090E020E137E211
:1041700040E050E00E94C83A20911B0130911C01A0
:1041800040E050E00E941A3B3093470120934601E3
:1041900021E08091400190914101A0914201B091B4
:1041A000430186159705A805B90560F560924001A1
:1041B00070924101809242019092430189819A81DB
:1041C00069857A850E94F4089093450180934401A3
:1041D00049855A85BA0180E090E020E137E240E06D
:1041E00050E00E94C83A209114013091150140E03E
:1041F00050E00E941A3B205F384D309347012093D6
:10420000460103C0222309F49BC1B20180E090E083
:1042100020E137E240E050E00E94C83A20911401CA
:104220003091150140E050E00E941A3B3093490163
:1042300020934801AD81BE81BD0180E090E020E186
:1042400037E240E050E00E94C83A20911B013091D3
:104250001C0140E050E00E941A3B30934B01209338
:104260004A016DC1B1E64B16510408F06FC0E9E494
:10427000AE16EDE0BE0608F469C085E080931A0131
:1042800082E080931901C60186509F4F2E8D3F8D8D
:104290008217930720F483E0809319011CC0E090FB
:1042A0001B01F0901C0100E010E08E8D9F8DB60187
:1042B0000E94F408A0E0B0E0BC01CD01A801970184
:1042C0000E94C83A950140E050E00E941A3B3093AA
:1042D0004501209344010D8507708D8D8064809386
:1042E0007C0010E081E0E82EF12CA8958F8560E03D
:1042F0007FD33C8134B935B986B18023E9F74E8547
:1043000044B980917A00806480937A0080917A0029
:1043100086FDFCCF8091780090917900E80EF91E1F
:104320001F5F1B3011F7C701880F991F880F991F56
:1043300069E070E00E94F33A70934B0160934A0188
:1043400080914F018F5F80934F01F9C017B818B863
:1043500014B815B817B857EC451651E0550608F4CF
:10436000CFC018B88A8984B910E00D859889092BC7
:1043700007B981E00E945408A889A7B98B8D0E94D3
:104380008B08429718F01F5F183C91F7BA89B4B9AF
:10439000B5B98F8561E02CD38B8D0E948708D82E0C
:1043A000C92EEC89E4B915B8FD85F7B9F8B98F8540
:1043B00060E01ED38C8D0E9487080E94EF087C016C
:1043C000298924B98B8D0E9487088C018C8D0E94CD
:1043D0008B08BC01C8010E94F4085C018B8D0E940F
:1043E00087088C018C8D0E948B08BC01C8010E943B
:1043F000F40895012C5E3F4F2817390708F483C055
:1044000018B8388937B94E8544B945B98F8561E008
:10441000EFD28B8D0E9487088C018C8D0E948B08B7
:10442000BC01C8010E94F4088C01A816B90668F402
:104430005A8954B955B98B8D0E948708FC018D2D7E
:104440009C2D9C01790158010FC08C8984B915B845
:104450009D8597B998B98F8560E0CAD28C8D0E94EE
:1044600087080E94EF08FC01A8EEAA16A3E0BA068E
:1044700038F4C50164E670E00E94F33A9B0106C07F
:104480009501A4E036952795AA95E1F7C5018759CE
:10449000904089589141A0F5EA15FB0588F5C701C0
:1044A000E3E096958795EA95E1F7893C910510F050
:1044B00088EC90E08E0D9F1D8A159B0508F52E1542
:1044C0003F05F0F480911A01833018F483E0809363
:1044D0001A0180911801E82FF0E09F012F563E4FFE
:1044E0004B8DD9014C935C8D16965C93EE0FFF1F9C
:1044F000E356FE4FB182A0828F5F8093180103C004
:104500008B8D6C8D2ED017B818B814B815B88EE2F4
:104510000E944B0C6F96E2E10C94733B80916F010B
:104520008F5F80936F01222371F38D8D80936C01D7
:104530009C8D90936D01AB8DA0936E01E4CF21E033
:1045400080914F018F5F80934F012223E1F2BD8D57
:10455000B0934C01EB8DE0934D01FC8DF0934E0137
:10456000D2CFA4E0B0E0E7EBF2E20C94573B8B83B0
:104570006C83A89570E0FB01EC51F34FB490339637
:104580000491482F50E0FA01EC51F34FE490339638
:10459000A49020914F0180916F0190E0820F911DB6
:1045A000892B09F021C2A89580911E0190911F01CD
:1045B000880F991F880F991F9093310180933001C4
:1045C0008091740190917501880F991F880F991F30
:1045D00090932F0180932E018EEB80932C011091EC
:1045E0001801A1E9B1E030E0FB01E40FF51F0CC0B8
:1045F00016962C9116978D9190E0820F911D8E1733
:104600009F0709F4DEC13F5F311790F318B807B96F
:10461000E4B8E5B8FF24F394CC24DD248C810E9417
:104620008708682E592E8B810E948B088C018C196B
:104630009D0997FF03C0909581959F4F039764F460
:10464000FE2CFF0C15B8F4B88B810E9487088135C9
:10465000910508F0B6C108C0A895F39439E1F316A6
:1046600009F4AFC16801DACFF5B88B810E948708E1
:104670006C01A7B8A8B815B8B4B8FF24F39488247F
:1046800099248B810E948708E82EA92E8C810E9494
:104690008B081C018819990997FF03C09095819593
:1046A0009F4F03975CF4BB0CB4B88C810E948708C1
:1046B0004C0144E4003C140748F00FC0A895F39463
:1046C00059E1F51609F47DC14101DBCF85E8C81633
:1046D00081E0D80608F075C106C090EBC9169DE4CC
:1046E000D90608F06EC1A4EA2A16A2E03A0608F03C
:1046F00075C0B8E98B16910408F463C1C6010E9425
:10470000EF087C01B60180E090E028E937EB40E05B
:1047100050E00E94C83A00E010E0A80197010E9412
:104720001A3B79018A01C4010E94EF08A0E0B0E0C1
:10473000BC01CD0128E937EB40E050E00E94C83AC7
:10474000940140E050E00E941A3BB901CA01E8E739
:10475000CE16EFE0DE0670F4F2E0EE0CFF1C001F58
:10476000111FFA95D1F7E60EF71E081F191FC80191
:10477000B70110C0F8E78F16FFE09F06B0F4E2E043
:10478000660F771F881F991FEA95D1F76E0D7F1D61
:10479000801F911F25E030E040E050E00E941A3B6E
:1047A000C901DA01BC01CD0108C06E0D7F1D801F5B
:1047B000911F969587957795679524E630E040E0C0
:1047C00050E00E94C83A5B016C012CEA3DE040E0F9
:1047D00050E0A20EB31EC41ED51E8BC0862D952D93
:1047E0009C01B9010217130708F4B8018E2D9A2D08
:1047F0009C0129012215330508F421017A8369837C
:104800006017710710F41A83098360901B01709080
:104810001C018824992489819A810E94F4087C01D2
:1048200089819A810E94EF085C0100E010E0C801D4
:10483000B701A40193010E94C83ACC24DD24A6014B
:1048400095010E941A3B59016A0142012414350462
:1048500008F44101E0901401F090150100E010E02F
:10486000C201B4010E94F408A0E0B0E0BC01CD0197
:10487000A80197010E94C83A940140E050E00E94CC
:104880001A3BB901CA0149815A8148575F4070F407
:1048900042E0AA0CBB1CCC1CDD1C4A95D1F7A60E2D
:1048A000B71EC81ED91EC601B50110C0B8E78B16C9
:1048B000BFE09B06B0F432E0660F771F881F991F98
:1048C0003A95D1F76A0D7B1D8C1D9D1D25E030E0CA
:1048D00040E050E00E941A3BC901DA015C016D0121
:1048E00008C0A60EB71EC81ED91ED694C794B7948A
:1048F000A79450901A01E3E0E51508F462C06B80BC
:104900006A94FC816F0E862C9924D401A65ABE4F5E
:104910008C91F401EE0FFF1FEE0FFF1F882309F4A7
:1049200048C0E255FE4FE080F18002811381C6014C
:10493000B5016E197F09800B910B97FF07C0909509
:104940008095709561957F4F8F4F9F4F2AE030E0A3
:1049500040E050E00E94C83A24E630E040E050E0F9
:10496000E20EF31E041F151FEA0CFB1C0C1D1D1D7F
:10497000A80197010E941A3B2115310541055105F7
:1049800001F533E0531619F081E080931A014AE5EE
:1049900051E0840E951E82E0D4018C9380917601C3
:1049A000E82FF0E0E35AFE4F60828F5F809376013C
:1049B00008C0E255FE4FA082B182C282D38281E05C
:1049C0008C9380911E0190911F01909331018093EF
:1049D0003001809174019091750190932F01809323
:1049E0002E0189E180932C012496E2E10C94733B23
:1049F0001F93182F60FF03C085B1812B03C095B1B1
:104A00008095892385B984B1812B84B90E9453088C
:104A100084B1912F9095892384B985B1982395B954
:104A20001F910895A0E0B0E0E8E1F5E20C94603B4E
:104A3000DD249FE3B92E89E0C82E17B818B815B841
:104A4000B4B880E00E948708EC0181E00E948B08E6
:104A50008C0182E00E948B089C0180911A018930B0
:104A600049F0C430D105A8F40430110590F4243085
:104A7000310578F417B814B8D0935501C093540198
:104A80001093570100935601309359012093580118
:104A90004AC080E0C85ED34008F481E0085E13405D
:104AA00008F48260285E334008F4846087B900E02F
:104AB00010E0A89580E00E9480087C0181E00E94BF
:104AC0008B08EC0182E00E948B0824E1E21625E0CD
:104AD000F20608F4389A25E0C431D20708F4399A6E
:104AE00025E08431920708F43A9A26E0E216F104B0
:104AF00020F4269710F4069740F00F5F1F4F81E0D7
:104B0000043F1807B1F6C0921A01C0E0D0E003C01C
:104B10000E9442082196C017D107D0F3D3949AE09F
:104B2000D91609F08ACFCDB7DEB7E9E00C947C3B0B
:104B30001F9360917B0170917C0180917D01909128
:104B40007E0110918D010AC02AE030E040E050E083
:104B50000E941A3BC901DA01BC01CD01212F1F5F60
:104B6000613A36E8730731E0830730E0930760F776
:104B700020938D01209130013091310140E050E0CF
:104B80000E94C83A28E833E140E050E00E941A3B16
:104B900020937B0130937C0140937D0150937E01F3
:104BA0001F9108951F920F920FB60F9211248F93A9
:104BB0009F93B59904C080917801882349F4B59BEF
:104BC00010C080918600909187008A3F910548F43B
:104BD00080915201909153010196909353018093DB
:104BE00052019F918F910F900FBE0F901F901895BB
:104BF0001F920F920FB60F9211248F939F931092D2
:104C00007801B09B10C080918600909187008A3F08
:104C1000910548F48091520190915301019690932F
:104C20005301809352019F918F910F900FBE0F906F
:104C30001F901895A0E0B0E0E0E2F6E20C945D3B36
:104C4000982E862EC82EDD24262F2150C601880FCF
:104C5000991F8C0D9D1D280F20935101F601EC51D9
:104C6000F34FB490262F30E0C9018C51934FFC01D3
:104C700014912951334FF901049180911A01813027
:104C800009F4B3C230911801E1E9F1E0DF011C96AB
:104C900020E010C08681881551F48081891539F48F
:104CA0008D919C9111978C5D954008F49EC22F5F69
:104CB00031961296231770F3109288011092870193
:104CC00081EF80938D0110927B0110927C011092F4
:104CD0007D0110927E01A6DE18B807B914B915B986
:104CE000892D0E948B087C01882D0E948B08E81A70
:104CF000F90A14B81092530110925201C0E0D0E0AA
:104D000027C0B5B8B4B80E943C0814B815B80E94C2
:104D10004308A895892D0E948B08EC01CE19DF0964
:104D200080915201909153018E37910520F0CB3440
:104D3000D1050CF456C251E0CD32D507ACF48091C8
:104D40005201909153010196909353018093520127
:104D50008091520190915301845F914090F2F1E073
:104D6000CD32DF070CF43DC2809152019091530186
:104D7000892B89F425E0C531D2076CF092C00E94DE
:104D80003D08892D0E948B08BC016E197F09A895EA
:104D90000F5F1F4F03C0BE0100E010E08091520181
:104DA000909153018017910750F76E01C61AD70AE8
:104DB0001C141D041CF0AA24BB2418C039ECC31613
:104DC000D1040CF00EC2B601882777FD8095982F8C
:104DD00028EE33E040E050E00E94C83A9E014427AC
:104DE00037FD4095542F0E941A3B5901E090520123
:104DF000F09053010894E11CF11C00E010E0E092F7
:104E00008301F09284010093850110938601C6010D
:104E10008C0F9D1F0E945009A0E0B0E0BC01CD01A5
:104E2000A80197010E94C83A60938301709384019E
:104E3000809385019093860160937B0170937C0140
:104E400080937D0190937E0187EF80938D0170DECA
:104E500086E290E00E94C53B282F332727FD30953E
:104E600068EE73E0621B730B882777FD8095982F9F
:104E700020917B0130917C0140917D0150917E0118
:104E80000E94C83A24E630E040E050E00E941A3B1D
:104E900020937B0130937C0140937D0150937E01F0
:104EA0005EC11B2D110FBEDD15B887E087B918B89C
:104EB00014B980E480937B0084E580BF892D8064F1
:104EC00080937C0086E180937A000E9446081092CD
:104ED000530110925201109280001092850010929E
:104EE000840087E286BB81E280936F0091E090931B
:104EF000780115B980911A01853071F49093810081
:104F000081E090E00C2C02C0880F991F0A94E2F710
:104F10008095877087B903C09093810007B9F89492
:104F200083B7817F83BF11C083B7816083BF7894CB
:104F3000889583B78E7F83BFF894A895809152019E
:104F4000909153018054964021F0809178018823FC
:104F500059F7789410928100C0918600D091870013
:104F600010926F0086E980937A0014B815B8892DE5
:104F70000E948B082091340130913501821B930BE4
:104F80000C969093900180938F01809152019091A3
:104F900053018052934008F024C1809152019091B6
:104FA00053019093860180938501D0938401C0932F
:104FB000830184EF80938D01809152019091530180
:104FC00082349105C8F060918301709184018091D1
:104FD00085019091860124E630E040E050E00E9497
:104FE0001A3B2093830130938401409385015093B1
:104FF000860186EF80938D016091790170917A012D
:1050000080E090E0209183013091840140918501FE
:10501000509186010E94C83A20E233E040E050E01F
:105020000E941A3B209383013093840140938501B1
:1050300050938601EBE7F1E020937B0131834283BB
:10504000538376DD80918D01843F09F078C0E09034
:105050007B01F0907C0100917D0110917E0180EA3E
:10506000E8168FE0F80680E0080780E01807C0F433
:10507000A80197012C543F4F4F4F5F4F60EA7FE0EC
:1050800080E090E00E941A3BE20EF31E041F151F01
:10509000E0927B01F0927C0100937D0110937E01F0
:1050A000E0907B01F0907C0100917D0110917E01E8
:1050B000E0E0EE16E0E0FE06E1E00E07E0E01E07AD
:1050C00028F4F092BF01E092BE0106C081E090E0BA
:1050D0009093BF018093BE018091510190E08D5F5C
:1050E0009F4F0E94C53B90E0A0E0B0E08E159F0569
:1050F000A007B10768F4E81AF90A0A0B1B0BE09243
:105100007B01F0927C0100937D0110937E0117C01A
:1051100024E130E040E050E0E20EF31E041F151FD2
:10512000E816F9060A071B0710F40E949110109266
:105130007B0110927C0110927D0110927E01B4B827
:1051400080917B0190917C01A0917D01B0917E01C5
:105150004997A105B10508F444C0AA24BB24809155
:105160001801882321F080911A018530D1F588E05B
:1051700080931A0160918D0180918E018617BCF099
:10518000681779F520917B0130917C0140917D0178
:1051900050917E0180917F0190918001A0918101C9
:1051A000B091820182179307A407B507D0F48091CC
:1051B0007B0190917C01A0917D01B0917E01809353
:1051C0007F0190938001A0938101B093820160934D
:1051D0008E01B0928A01A092890180928B019092F7
:1051E0008C0117B818B814B815B8CDB7DEB7ECE015
:1051F0000C94793B4F925F926F927F928F929F9225
:10520000AF92BF92CF92DF92EF92FF920F931F93D4
:1052100088E893E190931F0180931E0190933101E0
:10522000809330018EEB80932C0118B880E187B910
:105230000E944B0817B884E00E9487088C018B5CA1
:105240009840835F9140C0F481E080933B0160917E
:1052500030017091310180E090E02FEB39E040E0C7
:1052600050E00E94C83A980140E050E00E941A3B8A
:1052700030931F0120931E0180911E0190911F0108
:1052800090933101809330018EE00E948B088EE074
:105290000E94870890933501809334010E94FD0895
:1052A000C1DB18B811E017B915B914B980E00E9434
:1052B00087086C0142E0E42EE7B804E005B904B9C0
:1052C00081E00E9487083C0107B930E1F32EF5B870
:1052D000F4B882E00E9487086C0C7D1C680E791E71
:1052E00015B818B917B914B980E00E9487080E9450
:1052F000EF082C01E8B8E7B804B981E00E948708FC
:105300000E94EF085C0108B907B9F4B882E00E9476
:1053100087080E94EF08A40CB51CA80EB91E17B888
:1053200018B814B880913001909131017C01EE0CD5
:10533000FF1CE80EF91EE618F708EA18FB0800E063
:1053400010E088249924C401B30120E93AE140E047
:1053500050E00E94C83AA80197010E941A3B4901F7
:1053600030933A0120933901CC24DD24C601B501E4
:1053700020E93AE140E050E00E94C83AA8019701D4
:105380000E941A3BC90130933301209332018057A8
:10539000954E90931C0180931B0180E99AE1880E41
:1053A000991E909215018092140189E180932C013D
:1053B0001F910F91FF90EF90DF90CF90BF90AF9033
:1053C0009F908F907F906F905F904F900895982F4F
:1053D0008F3031F480913601813011F480E00895EE
:1053E000892F8F5F089590E08F709070892B21F442
:1053F0000E94670B0C94B11A08950F931F93CF93DB
:10540000DF93082F0E94790B80918B010E94AB0CD7
:1054100088E092E00E941B0D42D480918C01609143
:105420008B010E94B309909388018093870110E05B
:105430008A5F9F4F08F411E0C0918901D0918A01E1
:10544000112321F08BE492E00E941B0D80918C01CE
:105450000E94AB0C002359F090913C018DE0891B18
:105460000E94830D8CEE92E00E941B0D02C00E94F0
:105470008C0D0E94730B60917F017091800180916F
:1054800081019091820140918E0126E404E00E9406
:10549000C90D112369F087E192E00E941B0D8091F4
:1054A0008701909188016EEF4DE122E00E94D00EBD
:1054B0000E948C0D0E946D0BCD2B69F08EE192E065
:1054C0000E941B0D8091890190918A016FEF45E246
:1054D00022E00E94D00E0E948C0DDF91CF911F918F
:1054E0000F910895EF92FF920F931F9310E098E0B1
:1054F000E92E82EFF82E0DE001C010E00E9421108D
:1055000082E060E097DBE0921A0180918D01843F98
:10551000E1F480917B0190917C01A0917D01B0919B
:105520007E0184369105A105B10578F482E060E042
:1055300040E00E94763660937B0170937C018093FB
:105540007D0190937E01F0928D0180918D01823FCB
:10555000ACF080938E0180917B0190917C01A091B1
:105560007D01B0917E0180937F0190938001A09393
:105570008101B093820181E040DF1CC00E94790B61
:1055800085EE92E00E941B0D80913C01902F981BAC
:10559000892F0E94830D8CEE92E00E941B0D0E94C9
:1055A000730B8FE30E944B0C0E948C0D0E946D0BBD
:1055B0000E948C0D812F17DF88EE93E00E94620F0E
:1055C000882379F480911301843058F41F3029F432
:1055D00080913601813009F490CF1F5F1A3F08F4A3
:1055E0008DCF0E94F90C1F910F91FF90EF900895BD
:1055F000FF920F931F93182F062FF42E0E94AB0CCF
:105600008AE492E00E941B0DF3D0812F602F0E944C
:10561000423910E08091C2019091C301A091C40170
:10562000B091C5010097A105B10509F411E0809181
:10563000200187FD02C0112321F480E592E00E9441
:105640001B0D802F0E94AB0C112331F40E944807E0
:1056500080915D010E94AC07FF2051F080913C01D8
:105660008D3030F490E08D5A9C4F0E941B0D02C08B
:105670000E948C0D80E00E94B10D1123D9F460913D
:10568000C2017091C3018091C4019091C50147EF9F
:1056900028E403E00E94C90D8BE392E00E941B0DF9
:1056A00084E693E00E94CD3B64EF46E423E00E9451
:1056B000D00E1AC080915D010E94AC07809120013C
:1056C0008E3F94F485E292E00E941B0D6091A90147
:1056D0007091AA018091AB019091AC0140912001A1
:1056E00028E403E00E94C90D8091BA019091BB01AA
:1056F000A091BC01B091BD010097A105B105F1F0E9
:1057000080E00E94B10D6091BA017091BB0180915F
:10571000BC019091BD0140E028E404E00E94C90D65
:1057200080E492E00E941B0D8091C0019091C10124
:105730006FEF40E223E00E94D00E07C080E00E949D
:10574000970D80913F01882311F40E948C0D1F91C9
:105750000F91FF9008951F938AED92E08BD780E020
:105760006AE00E94570B8DE593E00E941B0D10E04C
:105770000E94211082E060E00E94B12280E062E09D
:105780000E94B1220E94790B80917601882329F032
:1057900080E062E041E02CDF12C08AED92E00E94DE
:1057A0001B0D8DE593E00E941B0D0E94730B8FE390
:1057B0000E944B0C80E00E94970D0E948C0D812F5F
:1057C00012DE88EE93E00E94620F882369F48091D4
:1057D0001301843048F41F3021F480913601813068
:1057E00031F21F5F1A3F20F20E94F90C1F910895B9
:1057F000A6E1B0E0EEEFFBE20C94573B82E0809331
:10580000200180911A01813009F045C28091760112
:10581000813009F040C220915D012C8BE22FF0E035
:10582000EE0FFF1FEE0FFF1FE255FE4F80819181AB
:10583000A281B381893032E5930730E0A30730E0DD
:10584000B30708F028C29E8B8D8B1B8A8B89823010
:1058500030F48C890E94A207F82ED92E05C08C89BD
:105860000E94A207F92ED82EED2DF0E0E951F34F5A
:10587000A490EF2DF0E0EC51F34F849115B818B8D7
:10588000AD89BE89A03FB105B0F4BB89B0FD13C09E
:10589000409014015090150120E735EE420E531E42
:1058A00081E090E00F2C02C0880F991F0A94E2F764
:1058B0008A2987B906C084B9A7B8409014015090CE
:1058C0001501EE248F2D0E9484088C018D2D0E94DD
:1058D0008B080430110510F4049720F0E39434E1B0
:1058E000E31681F780E480937B0094E590BF8F2DD1
:1058F000806480937C00A6E1A0937A0010928000DF
:105900001092850010928400B7E2B6BB0E94460850
:105910002B89222E3324C101817090709A8B898B40
:1059200020FD05C091E890938100A8B808C0A8B8F0
:105930000E944F08A0E2A6BBB1E8B093810020E02E
:1059400030E086B3482F85FF02C049010DC080FFBB
:10595000F8CF81E086BBA8952F5F3F4F20353105FA
:1059600081F7F0E58F2E912C18B81092810090E20B
:1059700096BB209186003091870039018091840088
:10598000909185002817390738F440FF05C0A1E041
:10599000A6BB0894811C911CB6E9B0937A00EE2452
:1059A0008F2D0E9484088C018D2D0E948B0804305D
:1059B000110510F4049720F0E39424E1E21681F736
:1059C0002091390130913A018D899E89280F391F24
:1059D000240D351DE0911601F091170190E949164B
:1059E0009AE15906C8F4A1EE6A1671048104910483
:1059F00010F089E107C0C30165E070E00E94F33A4E
:105A0000862F8451BF0168527040992787FD909579
:105A1000681B790B86E00AC0C90160EB76E30E943F
:105A2000F33A862F895FBF01685D7F4F90E0A0E069
:105A3000B0E086159705A805B90528F4681A790A13
:105A40008A0A9B0A03C066247724430189899A89BC
:105A5000892B41F082E290E0A0E0B0E0680E791E70
:105A60008A1E9B1E90E58916910418F066247724FF
:105A70004301ABE06A1671048104910428F0089494
:105A800061087108810891085901CC24DD2480E067
:105A900090E028EE33E040E050E00E94C83A7B01FD
:105AA0008C01B20180E090E0209130013091310111
:105AB00040E050E00E94C83AA60195010E941A3BBE
:105AC00040E050E0C801B7010E941A3BDA01C90169
:105AD0000E948F097C01C601B501A40193010E94B7
